:100000000C9437020C947E020C947E020C947E02B7
:100010000C947E020C947E020C947E020C947E0260
:100020000C947E020C947E020C94F4230C94C8244D
:100030000C94401F0C947E020C947E020C947E0261
:100040000C947E020C947E020C947E020C947E0230
:100050000C947E020C94971F0C947E020C947E02EA
:100060000C947E020C947E020C947E020C947E0210
:100070000C947E020C947E020C947E020C947E0200
:100080000C947E020C947E020C947E020C947E02F0
:100090000C947E020C947E020C947E020C947E02E0
:1000A0000C947E020C947E020C947E025700590040
:1000B0005C005F005400530006010151AC00AA002F
:1000C00062005A005D00600055006B001901690074
:1000D000AB00A90058005B005E00610056006C0098
:1000E00049006A00AE00A8000000CE5CD15CD45C80
:1000F00000000000C35C0100C95CC75C005CCF5C11
:10010000D25CD55C00000000CB5CC55CC85CC65C02
:100110000000D05CD35CD65C00000000CA5CC45C0C
:10012000CD5CCC5C00047F3F1F64321464321478D1
:100130003C1E1E140A052223252628292A2C2D2F91
:100140003032333536383A3B3D3E404243454749ED
:100150004A4C4E5051535557595A5C5E6062646622
:1001600068696B6D6F71737577797B7D7F8183852E
:1001700087898A8C8E90929496989A9C9E9FA1A330
:10018000A5A7A8AAACAEAFB1B3B4B6B8B9BBBCBE54
:10019000BFC1C2C3C5C6C7C9CACBCCCDCED0D1D2D0
:1001A000D2D3D4D5D6D7D7D8D9D9DADADBDBDBDCD2
:1001B000DCDCDCDCDDDDDDDDDCDCDCDCDCDBDBDB7E
:1001C000DADAD9D9D8D7D7D6D5D4D3D2D2D1D0CEDE
:1001D000CDCCCBCAC9C7C6C5C3C2C1BFBEBCBBB9E3
:1001E000B8B6B4B3B1AFAEACAAA8A7A5A3A19F9E61
:1001F0009C9A98969492908E8C8A89878583817F29
:100200007D7B79777573716F6D6B69686664626009
:100210005E5C5A5957555351504E4C4A49474543D5
:1002200042403E3D3B3A3836353332302F2D2C2A72
:10023000292826252322FFAA7F554000010101011C
:100240000101010101020202020202020202030391
:100250000303030303030404040404040405050561
:100260000505060606060607070707070808080823
:10027000090909090A0A0A0B0B0B0C0C0C0D0D0DD0
:100280000E0E0E0F0F0F1010111111121213131466
:1002900014151516161717181819191A1A1B1B1CDE
:1002A0001D1D1E1E1F202021222223242425262638
:1002B000272829292A2B2C2D2D2E2F30313232336D
:1002C0003435363738393A3B3C3D3E3F4041424376
:1002D0004445464748494A4C4D4E4F50515354555A
:1002E0005658595A5B5D5E5F616264656668696B0A
:1002F0006C6D6F7072737577787A7B7D7E80828388
:100300008587888A8C8E8F91939596989A9C9EA0CB
:10031000A2A3A5A7A9ABADAFB1B3B5B7BABCBEC0D8
:10032000C2C4C6C9CBCDCFD1D4D6D8DBDDDFE2E4A1
:10033000E7E9EBEEF0F3F5F8FAFDFF10034700688C
:1003400000650072006B0069006E0000002003343D
:100350000030002000500065007200630065006EF0
:10036000007400200043006C00750062000000046F
:1003700003090409023B00020100A0FA090400007D
:1003800001030101000921110100012240000705BC
:10039000810308000A09040100010300000009218B
:1003A00011010001226D000705820320000A1201DD
:1003B000000200000008EDFE606001000102000183
:1003C00005010980A101850319012AB7001501263D
:1003D000B700950175108100C0050C0901A10185C8
:1003E0000419012AA002150126A0029501751081A9
:1003F00000C005010906A1018506050719E029E7E6
:10040000150025019508750181020507190029EFDE
:100410001500250195F075018102050819012905CE
:10042000950575019102950175039101C0050109BA
:1004300006A101050719E029E715002501950875B2
:100440000181029501750881010507190029FF1531
:100450000026FF0095067508810005081901290589
:10046000950575019102950175039101C000112454
:100470001FBECFEFDAE0DEBFCDBF04B603FE27C05C
:100480008091BC029091BD02A091BE02B091BF02CA
:100490008730904BA740B04BD1F41092BC02109221
:1004A000BD021092BE021092BF0214BE84B7877FB5
:1004B00084BF0FB6F894A8958091600088618093FE
:1004C0006000109260000FBEE0E0F8E3099511E0D3
:1004D000A0E0B1E0EEE2FFE402C005900D92A63B81
:1004E000B107D9F722E0A6EBB1E001C01D92AC3B09
:1004F000B207E1F70E94C8120C946D270C9400001B
:10050000559A209A089580FF05C05D9881FF04C028
:10051000289808955D9AFACF289A089581E0089561
:1005200081E008950C94900208950C9494021F9316
:10053000CF93DF9300D000D00F92CDB7DEB74983C1
:100540005A836B833091B80189819A8131111DC022
:100550006623B9F02223A9F00E94EC08182F682F17
:1005600089819A810E94950869817A81812F0F90F3
:100570000F900F900F900F90DF91CF911F910C94DF
:100580003B0F0E94C308182FEFCF0E94EC0869812F
:100590007A81EDCFFC01262F4081518162817381E8
:1005A00084810C94970281E00895CF93DF93EC014E
:1005B00060E00E94CA02BE01DF91CF910C949502C7
:1005C0000E9459110E9470030E947A1B0C947E11A4
:1005D0000C94811180E00E94D31A80E00C94710386
:1005E000089508950E943E070E94F1022FEF84E3D0
:1005F0009CE0215080409040E1F700C000000C9446
:10060000BB1F0F931F93CF93DF938C0161E00E9478
:10061000CA02EC01B8010E949202882309F441C089
:10062000B801CE010E949E1A8823D9F1B801CE01EB
:100630000E94761D8823A9F1B801CE010E94B61B45
:10064000882379F1B801CE010E94E01C882349F18A
:10065000B801CE010E94F718882319F1F8018281B0
:10066000882361F0CB35FDE5DF0721F170F4C1157A
:10067000ECE5DE07A1F0CF3DDC45C9F0C801DF9114
:10068000CF911F910F910C948E02CC358DE5D80738
:10069000A1F0CD35DD4591F70E94990DEFCF0E9475
:1006A000F20280E0DF91CF911F910F9108950E9497
:1006B000530EF7CF0E94A20DE1CF0E94A50DDECF11
:1006C0000C94F0020E94D3190E94D21D0E94710363
:1006D0000C9460030C94830281E008950C946C03E5
:1006E0000895CF93C82F0E946A038C2FCF910C944A
:1006F0006E03CF93DF93CDB7DEB72B970FB6F89489
:10070000DEBF0FBECDBF4F83588769877A878B873F
:1007100061110E94E70C1E821D8285E0FE01379662
:10072000DE01119601900D928A95E1F78C819D81F1
:10073000892B89F449815A816B817C818D819E81CD
:100740000E94080C2B960FB6F894DEBF0FBECDBFEB
:10075000DF91CF91089589819A8189238F3F51F349
:10076000CE0101960E94D3028111E4CFEBCFFC01B0
:10077000808191810C942E09CF93C82F882309F48E
:1007800083C08238C1F40E94D21D81FD7DC089E3FF
:100790000E94A20C0E94170D2FEF81EE94E02150D1
:1007A00080409040E1F700C0000089E30E94A90C5E
:1007B000CF910C94170D8338A1F40E94D21D80FDB7
:1007C00063C083E50E94A20C0E94170D2FEF81EEFB
:1007D00094E0215080409040E1F700C0000083E5A4
:1007E000E5CF8438A1F40E94D21D82FD4DC087E47C
:1007F0000E94A20C0E94170D2FEF81EE94E0215071
:1008000080409040E1F700C0000087E4CFCF8CEF3C
:100810008C0F813A90F46C2F80910201909103012A
:100820000E94381E882329F08C2F0E94A90C0E9458
:10083000170D8C2F0E94A20CBBCF80E28C0F88304A
:1008400048F4C77081E001C0880FCA95EAF70E949A
:10085000CA0CAECFEBE5EC0FE33040F4F0E0EE5A1B
:10086000FE4F808190E0CF910C94F81DC85AC7319B
:1008700058F4EC2FF0E0EE0FFF1FEC5DFE4F80818F
:100880009181CF910C940E1ECF910895882309F485
:100890004BC0823871F40E94D21D81FF45C089E3AC
:1008A0000E94A20C0E94170D89E30E94A90C0C94CF
:1008B000170D833859F40E94D21D80FF35C083E59F
:1008C0000E94A20C0E94170D83E5EFCF843859F4E3
:1008D0000E94D21D82FF28C087E40E94A20C0E94C1
:1008E000170D87E4E2CF9CEF980F913AF0F290E277
:1008F000980F983050F4877091E001C0990F8A9555
:10090000EAF7892F0E94D00CD2CF9BE5980F933045
:1009100020F490E080E00C94F81D885A873120F490
:1009200090E080E00C940E1E08951F93CF93DF9308
:10093000182FEB010E94BC03209731F4812FDF9127
:10094000CF911F910C9446048FE99FE00197F1F736
:1009500000C000002197F0CF70E060E0893311F40F
:1009600060E570E00C949504882321F00E94CA0C85
:100970000C94170D0895882321F00E94D00C0C943C
:10098000170D0895BF92CF92DF92EF92FF920F93CF
:100990001F93CF93DF936C01D62FC72FFC011281D9
:1009A000F580F2949FE0F9220E94C00CE82E882383
:1009B000B9F0E12E1123A1F08C2F807F803421F03B
:1009C00080E28D0F8830B0F08091820282FD12C0EB
:1009D00082E00E94680D0E94C00C91E0E82EE9269A
:1009E000BC2EB2948FE0B822EB2DF0E0E159F84D27
:1009F0000C94D426E12CF4CF0C2F0F70C07F11F093
:100A00000295007F112399F0002359F080E28D0FA9
:100A1000883010F0D11107C0802F0E94CA0C0E94AC
:100A2000170D8D2F41C0802F0E94DA0CF8CF8D2F2B
:100A30000E944604002309F43FC080E28D0F8830F5
:100A400010F0D11104C0802F0E94D00C03C0802F61
:100A50000E94E00C0E94170D2FC00C2F0F70C07F5A
:100A6000C03211F00295007FDD2381F0D13009F40E
:100A700069C0112309F473C0FF2009F469C0F601AD
:100A8000858180FFCECF8F70858362C08091820286
:100A900082FF38C0112359F0002329F0802F0E94D3
:100AA000CA0C0E94170D80E00E94BC0305C080E0C4
:100AB0000E9446040111C7CFEB2DE850FF0B34977D
:100AC00020F40E94D21D0E947103EE2009F477C128
:100AD0000E94BC0C80FD73C1F60112820E94B60C0C
:100AE0000E94F907C6010E9400070E94B60CDF9120
:100AF000CF911F910F91FF90EF90DF90CF90BF901B
:100B00000C941A08112389F0F11006C00E94FA0C07
:100B1000802B0E94B404D0CFF1E0FF12F7CF0E94E7
:100B2000FA0C802B0E94000DC7CFF11006C00E9466
:100B30000D0D802F0E94BB04BFCF21E0F21609F4F7
:100B4000BBCFF5CF112331F035E03F1508F4B4CF1A
:100B5000802FDFCF84E08F1508F4AECFEACFFF20DF
:100B600041F3D93349F4FFEF27EE33E0F150204051
:100B70003040E1F700C000008D2F0E9446049CCF5A
:100B80008C2F86958695837069F0813009F094CF1B
:100B90008D2F9C2F9370111102C090E080E00E9475
:100BA0000E1E8ACF8D2F9C2F9370111102C090E0E2
:100BB00080E00E94F81D80CF8C2F837009F041C027
:100BC00011117ACF4D2F429546954770440F440F2F
:100BD0000D2F0F7010E030E020E0042E04C0000F55
:100BE000111F221F331F0A94D2F760E070E0CB017F
:100BF000D4FF0FC06FE070E080E090E004C0660FAB
:100C0000771F881F991F4A95D2F760957095809538
:100C10009095C695C695C370602B712B822B932B34
:100C2000C23049F058F4C13019F00E94AB0744CFEC
:100C30000E94990741CF0E94BD073ECF0E949707AF
:100C40003BCF8695112311F08C2F8170882309F4F6
:100C500033CF4D2F429546954770440F440F0D2FCB
:100C60000F7010E030E020E0042E04C0000F111FD0
:100C7000221F331F0A94D2F760E070E0CB01D4FF4B
:100C80000FC06FE070E080E090E004C0660F771F57
:100C9000881F991F4A95D2F7609570958095909519
:100CA000C695C695C370602B712B822B932BC230D7
:100CB00049F058F4C13019F00E947008FDCE0E942E
:100CC0005E08FACE0E948208F7CE0E94D307F4CEC7
:100CD000CF70112329F08C2F0E94F9078D2F19CF87
:100CE0008D2F0E94BB048C2F0E941A08E5CED23FA4
:100CF00051F160F4D03FB9F0D13F81F0112309F4F4
:100D000049C0F1108ECE8C2F8F7121C0D33F11F1CD
:100D1000D43FA1F78091820282FF26C08C2F8F7171
:100D2000112311F314C0112349F084E08F1508F446
:100D3000C3CE8C2F8F710E943D08BECE95E09F15CB
:100D400008F4BACEF6CF8C2F8F711111CDCF0E943F
:100D5000F907B2CE112329F08C2F8F710E94E4077E
:100D6000ABCE0E94DF07A8CE112349F0CF718C2FA4
:100D70000E94F90763E08C2F0E944D0D9DCE81E00B
:100D80000E94680DE1E0EF1508F096CE82E00E9427
:100D9000680D92CEF110E5CE8C2F8F71A5CF4C2F20
:100DA0004F706D2FC6010E94370F0E945C0984CEE0
:100DB0004C2F4F706D2FC6010E943A0F7DCEDF91F0
:100DC000CF911F910F91FF90EF90DF90CF90BF9048
:100DD00008950F931F93CF93DF93EC01688179817E
:100DE0008A810E9438098C010E9494080E9496070B
:100DF000B801CE01DF91CF911F910F910C94C204E5
:100E0000CF93DF93EC018B819C81892B29F0888122
:100E1000998189238F3F59F4DF91CF910895CE01B5
:100E20000E94E906CE01DF91CF910C94D502CE014C
:100E30000E9401038111F3CF0E94C00C882361F34B
:100E40008A81882349F38091820282FDE5CF82E086
:100E5000DF91CF910C94680D90E080E00E94F81D26
:100E600090E080E00E940E1E0E94E70C0E94F70CAA
:100E70000C94170D0E94B00C0C942C070E94D70CF8
:100E80000C943A07E92FE295EF70E250EE3070F4DF
:100E9000F0E0E158F84D0C94D426803F19F020F48E
:100EA000883E20F481E00895843FE1F380E00895D6
:100EB000883EC0F3813FD1F7F5CF93FB882780F9B7
:100EC0000895FC01808191810E942E090C944207B3
:100ED000CF93DF9300D000D00F92CDB7DEB70F9045
:100EE0000F900F900F900F90DF91CF910895CF93B7
:100EF000DF9300D000D000D0CDB7DEB726960FB676
:100F0000F894DEBF0FBECDBFDF91CF910895089555
:100F10000C9487070E9488076093D1017093D201D7
:100F20008093D3019093D4010C942C0708950C94D2
:100F30008A070F931F930091D1011091D201209144
:100F4000D3013091D401602B712B822B932B1F91F5
:100F50000F910C948A070F931F930091D101109168
:100F6000D2012091D3013091D401602371238223D7
:100F700093231F910F910C948A070F931F93009155
:100F8000D1011091D2012091D3013091D401602779
:100F90007127822793271F910F910C948A070C9435
:100FA00087070C94CF070E94D1076093CD017093FF
:100FB000CE018093CF019093D0010C942C0760E078
:100FC00070E0CB010C94D3070F931F9341E050E0E6
:100FD00060E070E08A019B0104C0000F111F221F16
:100FE000331F8A95D2F7C901B8011F910F910C9454
:100FF000D3070F931F9341E050E060E070E004C01E
:10100000440F551F661F771F8A95D2F78091CD0137
:101010009091CE01A091CF01B091D0018A019B01A6
:10102000082B192B2A2B3B2BC901B8011F910F91BB
:101030000C94D3070F931F9341E050E060E070E001
:1010400004C0440F551F661F771F8A95D2F7CB0146
:10105000BA0160957095809590950091CD011091A1
:10106000CE012091CF013091D001602371238223E2
:1010700093231F910F910C94D3070F931F9341E07B
:1010800050E060E070E004C0440F551F661F771FFA
:101090008A95D2F78091CD019091CE01A091CF0198
:1010A000B091D0018A019B01082719272A273B27E5
:1010B000C901B8011F910F910C94D3070F931F938F
:1010C0000091CD011091CE012091CF013091D0013E
:1010D000602B712B822B932B1F910F910C94D307B4
:1010E0000F931F930091CD011091CE012091CF015C
:1010F0003091D00160237123822393231F910F919C
:101100000C94D3070F931F930091CD011091CE0142
:101110002091CF013091D00160277127822793273A
:101120001F910F910C94D3070895E92FEE0FE90F4B
:10113000EE0F8E0F982F977041E001C0440F9A95E3
:10114000EAF786958695869595E0899FF0011124AA
:10115000E754FE4F30E020E070E05191DF0111973D
:10116000CB01022E02C0969587950A94E2F7817012
:1011700081958527842385278C932F5F3F4F2530CA
:10118000310559F70895E92FEE0FE90FEE0F8E0F95
:10119000982F977086958695869525E0829FF00119
:1011A0001124E754FE4F50E040E080E0219130E010
:1011B000092E02C0369527950A94E2F7217033274D
:1011C000042E01C0220F0A94EAF7822B4F5F5F4F73
:1011D0004530510559F70895BF92CF92DF92EF92B3
:1011E000FF920F931F93CF93DF938C01C090CD019B
:1011F000D090CE01E090CF01F090D0018091D1014C
:101200009091D201A091D301B091D401C82AD92ADA
:10121000EA2AFB2ACFE1D0E0BC2ED701C6010C2E72
:1012200004C0B695A795979587950A94D2F780FD47
:101230000EC0219788F7B12C8B2DDF91CF911F9194
:101240000F91FF90EF90DF90CF90BF900895B8017D
:101250008C2F0E946110019761F3EECFCF93DF9343
:10126000EC010E94EC08BE01DF91CF910C9461105B
:101270001F93CF93DF93EB019091B801992331F045
:10128000CB01DF91CF911F910C942E09882379F027
:10129000CB010E94EC08182F682FCE010E94950800
:1012A000BE01812FDF91CF911F910C946110CB0172
:1012B0000E94C308182FF4CFEF92FF920F931F9351
:1012C000CF93DF938C01892B81F0F12CEE24E394F2
:1012D000E8012196F8018491843770F4843008F095
:1012E0005FC08130B1F08230A1F1DF91CF911F91C9
:1012F0000F91FF90EF900895853709F44CC008F4E2
:101300003DC09CE7980F903780F78F770E94460486
:1013100049C00E5F1F4FFE01849190E2980F9830F4
:1013200060F48770FE2D01C0FF0F8A95EAF78F2FBA
:101330000E94EA0C0E94170D02C00E94BC038F2D70
:10134000815030F2EFE9FFE03197F1F700C0000083
:10135000F7CF0E5F1F4FFE01849190E2980F9830F7
:1013600050F48770FE2D01C0FF0F8A95EAF78F2F8A
:101370000E94F00CDFCF0E944604E1CF0E5F1F4FAA
:10138000FE01C491C150D8F28FE99FE00197F1F7B7
:1013900000C00000F7CF0E5F1F4FFE01F490CFCFCB
:1013A0000E94BC038E01CBCF1F93CF93DF93C091DC
:1013B000D50116E08091D6018C1304C0DF91CF9146
:1013C0001F910895D0E01C9FF0011D9FF00D112486
:1013D000E952FE4F40815181628173818481958100
:1013E0000E9477072196C770E5CF40910702509180
:1013F00008026091090270910A0280910B0290919B
:101400000C020C947707FF920F931F93CF93DF93F7
:1014100080910C02807FD1F4809109028823B1F081
:101420008091D5011091D601609107027091080258
:10143000A0910A02B0910B02062F0723C091000170
:10144000D091010196E0F92E181306C0DF91CF91DB
:101450001F910F91FF90089590E0109711F00F3FAA
:1014600019F401968770F0CFF89E9001F99E300D27
:101470001124F901E952FE4F41814713F2CF408117
:101480004613EFCF42814111ECCF438154814A1B77
:101490005B0B4C175D0728F780910C028F70806101
:1014A00080930C02F901E452FE4F80818F708061BD
:1014B000808387E092E00E940007DF91CF911F9127
:1014C0000F91FF900C94D409AF92BF92CF92DF920C
:1014D000EF92FF920F931F93CF93DF93CDB7DEB7B9
:1014E00061970FB6F894DEBF0FBECDBF8C0185E0CB
:1014F000F801DE011D9601900D928A95E1F7F80141
:10150000E28087E0C82E82E0D82E60910A027091B6
:101510000B026115710509F45FC1909107022091DA
:101520000802892F82238F3F09F456C140815181DF
:10153000A380B480F0900902F501E61BF70BBF0110
:10154000E0910001F0910101FF2009F4F6C08091C3
:101550000C02382F307F6E177F0708F0AFC03111B3
:1015600079C0FE2C251323C0941321C0E1101FC0A5
:101570008F70806180930C020E94F509C6010E9461
:10158000000780910C02F80185838F2D61960FB6BC
:10159000F894DEBF0FBECDBFDF91CF911F910F91A9
:1015A000FF90EF90DF90CF90BF90AF900895AB2861
:1015B00029F0842F85238F3F09F027C180E0F82F81
:1015C000F170DF2E80FF3CC08091D5012091D601C3
:1015D00036E0821315C04D875E878D859E850E94FB
:1015E0002E09292F22952F702230F0F0243018F583
:1015F0009F70F1F0F8019581907FD1F4D12C1EC03D
:1016000090E0389FF001399FF00D1124E952FE4F10
:101610006181651306C06081641303C062816E112D
:101620000FC001968770D5CF9F7011F0882331F3DA
:10163000805E883018F3C8010E940007FD2CA5CFFA
:10164000EE2009F4A2CF80910C02816080930C02FD
:10165000F12C9BCF251306C0941304C0F801EE2093
:1016600009F487C0C8010E946107882319F1EE20A0
:1016700009F180910C02803270F0209107023091C4
:10168000080238872F831986BB86AA868C87CE01ED
:1016900007960E94000786E0F801A7E0B2E00190FB
:1016A0000D928A95E1F70E94030A0E94F509FF2432
:1016B000F3946BCFC8010E940007F9CF311113C01A
:1016C0007A2DB98AA88A6E2D89890E94680787E0D9
:1016D00092E00E94000786E0F60111928A95E9F7F0
:1016E0000E94F509B5CF25130FC094130DC0E1106A
:1016F0000BC0F8018583C8010E94000786E0F6014F
:1017000011928A95E9F741CFC8010E9461078823A9
:1017100089F2EE2079F280910C02803208F4BBCF7E
:1017200020910702309108023A8329831B82BD82EF
:10173000AC828E83CE010196ACCF6E177F0708F086
:101740003EC0FE2CEE2009F4B5CF25132AC0941319
:1017500028C080910C0280FD1BC0982F907FC1F0A3
:10176000F8018583903F31F0982F907F905F8F70C4
:10177000892B8583C8010E94000786E0F801A7E055
:10178000B2E001900D928A95E1F70E94F509FDCE35
:1017900086E0F801A7E0B2E001900D928A95E1F7AA
:1017A000F4CEC8010E946107811175CF80910C02AF
:1017B000816080930C02C8010E940007E6CE7A2D5A
:1017C000B98AA88A6E2D89890E94680786E0F60189
:1017D00011928A95E9F7D9CFEE2009F46BCFC801B1
:1017E0000E946107F82E882309F464CF86E0F8018F
:1017F000A7E0B2E001900D928A95E1F787E092E0D0
:101800000E94B7030E94030AC0CF81E08E25D7CE85
:101810001F93CF93DF93CDB7DEB72C970FB6F89415
:10182000DEBF0FBECDBF4F83588769877A878B870E
:101830009C87CE0107960E94640A882369F08A85F6
:101840009B85892B39F04F815885842F85238F3FC5
:1018500009F071C016E05FC086E0FE013796DE0138
:10186000119601900D928A95E1F78A859B85892BC7
:1018700089F38F81988589238F3F61F32091D60169
:1018800030E0C9010196877099274091D50148172A
:10189000190671F40E943E071092D6011092D501EC
:1018A00086E0E7E0F2E0DF011D928A95E9F7D2CF0A
:1018B00096E0929FD001939FB00D1124A952BE4F84
:1018C000FE01319601900D929A95E1F78093D60131
:1018D0000E94D409BFCF819FC001112489529E4F1D
:1018E0000E94640A8823E9F0E091D5011E9FF0016F
:1018F0001124E952FE4F40815181628173818481BC
:1019000095810E9477078091D50190E001968770BC
:1019100099278093D5018091D5019091D6018913A3
:10192000DACF2C960FB6F894DEBF0FBECDBFDF9195
:10193000CF911F91089569857A858B859C850E943A
:10194000770788CF682F80910201909103010C9452
:10195000B81E682F80910201909103010C94C31E60
:1019600080910201909103010C94CE1E80910D0292
:10197000859585958595089580910D0287700895C8
:1019800090910D02977081E009F480E008958091B4
:101990003102089590913102892B8093310208958C
:1019A000809590913102982390933102089510927E
:1019B0003102089590913002892B8093300208956E
:1019C0008095909130029823909330020895109260
:1019D0003002089590912F02892B80932F02089551
:1019E000809590912F02982390932F020895109242
:1019F0002F02089580910E02089508950C94FD0C15
:101A00009091820292FD08C090910E02981721F0E9
:101A100080930E020C94FE0C089580910E02882390
:101A200029F010920E0280E00C94FE0C0895E091D3
:101A30000201F0910301809131028083E091020163
:101A4000F0910301808190913002892B8083E09195
:101A50000201F0910301808190912F02892B8083F4
:101A600090910E02992381F0E0910201F09103011F
:101A70008081892B808380910201909103010E94D3
:101A8000241E81110E940D0D80910201909103018D
:101A90000C94DE1D08950C944A0D9091820292FDE3
:101AA00010C098E0899F90011124622B60930D0271
:101AB0000E94F90780910D028595859585950C9476
:101AC0004B0D0C94F90710920D0280E00C944B0D15
:101AD00090910D028095892380930D02282F277005
:101AE00091F4282F082E000C330B9217130659F08F
:101AF0009091820292FD07C08595859585950E94FB
:101B00001A080C94630D08959091820292FB22278B
:101B100020F9281769F080FB92F990938202809156
:101B20008102909182020E94CF0D82E00C94680D98
:101B300008958091820282FB882780F991E08927AD
:101B40000C94840D81E00C94840D80E00C94840D41
:101B50006FEF7FEF90E080E00C94572790E080E0FB
:101B60000E94332721E0893E9E4F09F020E0822F1A
:101B7000089582E090E00C94252783E090E00C9497
:101B80002527CF9384E090E00E942527C82F82E28A
:101B900090E00E942527982F8C2FCF910895CF9306
:101BA000C92F682F84E090E00E9439276C2F82E2D1
:101BB00090E0CF910C943927AB01BC018FE090E00D
:101BC0000C944B27AB01BC0183E190E00C944B27B4
:101BD00060E070E0CB010C94E20D60E070E0CB01BE
:101BE0000E94DC0D0C94E80D69EE7EEF90E080E041
:101BF0000E94572760E082E090E00E94392760E071
:101C000083E090E00E9439271092D1011092D20116
:101C10001092D3011092D40160E084E090E00E9421
:101C2000392760E082E290E00E94392760E085E099
:101C300090E00E94392760E086E090E00E9439271A
:101C40006FEF87E090E00E94392740E050E0BA0152
:101C500088E090E00E944B2760E08DE090E00E94D9
:101C6000392740E050E0BA0188E190E00E944B271C
:101C700060E087E190E00E94392740E050E0BA013F
:101C80008CE190E00E944B2770E060E080E290E001
:101C90000E94572740E050E0BA0188E190E00E949E
:101CA0004B270C94ED0D0C94F40D682F8EE090E012
:101CB0000C9439270E947C1F60933C0270933D0274
:101CC00080933E0290933F026093380270933902F2
:101CD00080933A0290933B02089585B7806885BF50
:101CE00085B7806885BF089508950C948002089593
:101CF0000C94770E0E946D0E8FE391E10E94C81D37
:101D00000E94740E0C94750E81E008950C94840E5C
:101D1000089508950E94880E0C94890E0E94671FF2
:101D20000E9429120E94D3190E9416180C94780E52
:101D3000AF92BF92CF92DF92EF92FF920F931F93D9
:101D4000CF93DF93CDB7DEB72A970FB6F894DEBFF7
:101D50000FBECDBF0E943E1281110E945A0E83E336
:101D6000A82E82E0B82E10E000E0C02E802F0E9446
:101D70008311E82EF501F1905F01F81609F44FC0C8
:101D80008091400281FD0E9489118F2D8E25D12CDA
:101D9000FF24F394982F9F21E9F10E94860E882357
:101DA00099F0DE82CF82EF2081E009F480E088871D
:101DB0000E94701F8160782F9A8789874E815F818A
:101DC00068858A850E947903F801ED5CFD4F80816A
:101DD000F826F0820E9449180E94791B0E94D21DA9
:101DE00090913202891791F10E94D21D80933202A4
:101DF0002A960FB6F894DEBF0FBECDBFDF91CF910C
:101E00001F910F91FF90EF90DF90CF90BF90AF9018
:101E10000C947103D394FF0CF6E0DF12BBCF0F5F7D
:101E20001F4F0530110509F0A0CF8FEF89838A83FA
:101E30001B820E94701F8160782F9D838C83498153
:101E40005A816B818D810E947903C4CF2A960FB687
:101E5000F894DEBF0FBECDBFDF91CF911F910F91E0
:101E6000FF90EF90DF90CF90BF90AF90089590E0FB
:101E700080E008950895972F70E026E0929F600D0E
:101E8000711D1124FB019EE1899FE00DF11D1124BC
:101E9000EE0FFF1FE455FF4F859194910895FC01CB
:101EA000EE0FFF1FEC5DFE4F859194910895CF9347
:101EB000DF930E946510EC01811520E5920708F080
:101EC00041C0811530E4930708F0B4C0803E91050D
:101ED00018F5803C910508F09DC0883A910570F492
:101EE000853A910508F08EC081309105F9F0009790
:101EF000E9F00497D8F4D0E0C0E018C08F3B91051A
:101F0000D0F7C85AD0E0CC0FDD1FCB5ADE4F099076
:101F1000D881C02DD4640AC08115904258F4C115EF
:101F200081E0D80718F4C83ED10528F7CE01DF912B
:101F3000CF910895C11590E3D90708F071C0CE0183
:101F40009F706AC0811525E5920758F5811534E523
:101F5000930708F09EC0811542E5940750F4C1151F
:101F600081E5D80708F469C0DC2FCC27C16FD06A9F
:101F7000DDCF982F969596959E0123703327C11536
:101F8000D34508F077C0C1E0D0E002C0CC0FDD1F20
:101F90002A95E2F720E2929FC0011124C82BD92B89
:101FA00067C0C11589E5D807A8F4C11598E5D90718
:101FB00008F074C0C11526E5D20708F09CCF8C2F1D
:101FC0000E94FC10C82FD0E0DC2FCC27CC27DF717B
:101FD000D062ACCFC1153AE5D30708F464C0CE0196
:101FE00090568115904208F086CF8D2F8F710E94F8
:101FF000FC1090E0982F882788279F719C012C2B3C
:10200000E901E6CFC55AD0E0CD57DE4FC881D0E018
:10201000D0648CCF805C91090E944F0FEC0186CF79
:10202000CE019927D3FF03C0EC01D86C7FCFEC0120
:10203000D06C7CCFDF70D06A79CFCE01E4E096958A
:102040008795EA95E1F783702C2F269526952370C6
:1020500090E2299F90011124382B8C2F8370C1E0CE
:10206000D0E002C0CC0FDD1F8A95E2F7C22BD32B44
:10207000DC685CCFC1E0D0E002C0CC0FDD1F2A9548
:10208000E2F730E2939FC0011124C82BD92BDA6804
:102090004DCFD82FCC27C46FD06A48CFDC2FCC27A8
:1020A000C06FD06A43CF8C2F8F700E94FC1034E039
:1020B000D695C7953A95E1F7CF709C2FEC01D06982
:1020C00035CF0E943B0F0C94570F82389105B1F128
:1020D000B0F48133910509F475C048F48932910553
:1020E00009F469C08A32910509F473C008958533F3
:1020F000910509F459C08933910501F10895833E92
:102100009105A9F138F4803E9105F9F0823E9105E0
:1021100049F10895863E9105A9F1873E9105C9F1DF
:10212000843E910519F52091820221FF1FC0809104
:10213000810284FD14C087EE90E008952091810211
:102140002370A1F080EE90E008952091810220FD9F
:1021500047C03091820230FF09C024FF44C090E0A4
:1021600080E004C02091810222FDF7CF08952091E4
:10217000810222FD3BC03091820230FDE3CF24FF7B
:10218000F5CFEDCF2091810223FFF0CF24FDE7CFE3
:10219000D2CF2091810223FD2CC03091820231FFE9
:1021A000EECF84EE90E008952091810225FFDECFEE
:1021B00089E290E008952091810225FFD7CF85E341
:1021C00090E008952091810226FFD0CF8AE290E02E
:1021D00008952091810226FFC9CF81E390E0089500
:1021E00089E390E0089583EE90E0089582EE90E018
:1021F000089586EE90E008959091810292FF06C0C6
:10220000282F28712830F9F4877F846093FF06C057
:10221000282F28712831F1F4877E84612091820271
:1022200020FF06C0382F38713830D9F4877F81609D
:1022300021FF06C0282F28712831D1F4877E8161C3
:1022400094FD877E0895282F24712430F9F68B7F22
:102250008860DCCF282F2471243101F78B7E8861C0
:10226000DDCF382F3171313019F78E7F8860E0CFA4
:10227000282F2171213121F78E7E8861E1CF80E006
:1022800008950C94A80D0E943E128FE39CE90197DB
:10229000F1F700C000000E943E1280E00E9483110E
:1022A00080FF04C00E9441110C94BB1F08950C9440
:1022B00043110E94AE0D811102C00E94530E0E9474
:1022C000B90D809340020E94C10D909382028093C9
:1022D00081020E9457110E94BD0D682F70E090E0AE
:1022E00080E00E9497076091CD017091CE018091AE
:1022F000CF019091D0010C94D10708950C947D11D9
:1023000008950C948011E82FF0E0E857FD4F80818C
:102310000895089580EA8A95F1F7089500C0089518
:102320000C948A11F894E82FE295EF70F0E031A157
:10233000282F2F7081E090E001C0880F2A95EAF7DE
:10234000982F9095932391A392A1892B82A378949F
:102350000895CF93DF93CCE8D1E089918F3F11F0BE
:102360000E94921181E0C139D807B9F7C6E8D1E0DF
:1023700089918F3F11F00E94921181E0CC38D807EB
:10238000B9F7DF91CF910895CF92DF92EF92FF924C
:102390000F931F93CF93DF93EC01D62E062F10E0FF
:1023A000C80184579E4F7C01FC0180818F3F09F456
:1023B00045C0F894E82FE295EF70F0E091A18F709E
:1023C00021E030E001C0220F8A95EAF7892F822BA5
:1023D00081A382A12095282322A378940E948E11A4
:1023E000E6E8F1E04CE851E031E0C12C21912F3FCB
:1023F00071F1A22FA295AF70B0E090968C9190E011
:102400002F7002C0959587952A95E2F780FD1FC031
:10241000832FC82A330F4E175F0741F7F7018081DA
:102420008F3F11F00E94921161E0C11001C060E085
:102430008D2D0E949011C00FD11FC882DF91CF91C6
:102440001F910F91FF90EF90DF90CF90089580E063
:10245000E0CF0E94A91185E0E8E8F2E0DF01982FC3
:102460001D929A95E9F7E3E8F2E0DF011D928A9563
:10247000E9F785E00E9485120C94E002FF920F9329
:102480001F93CF93DF9300D000D00F92CDB7DEB76C
:102490008E010F5F1F4F85E0F80111928A95E9F7D1
:1024A000F12C6F2DC8010E94C411F394F5E0FF12C6
:1024B000F8CF45E050E0B80183E892E00E94182789
:1024C000FF24F394009709F4F12C892B41F085E067
:1024D000F801A3E8B2E001900D928A95E1F72F2D63
:1024E00045E068E872E083E892E00E9486120E946C
:1024F000E8028F2D0F900F900F900F900F90DF91AB
:10250000CF911F910F91FF9008950895FF920F931F
:102510001F93CF93DF93F82E092F162FD72FC42F99
:10252000222349F081E0809343020E94701F909320
:10253000420280934102809143028823A1F080915E
:102540004102909142020E94881F059760F0EF2D92
:10255000F02FA12FBD2FCE0FDF2FD11DEC17FD07C0
:1025600041F410924302DF91CF911F910F91FF90A0
:10257000089581918D93F2CF0E944E210E948E0E7C
:102580000C945A210E945E210E94980E0C9478218E
:102590000E94FA1E0E9435210E947A0E0E94BC12EF
:1025A0000E94C2120E948A0EFBCFEF92FF920F93FD
:1025B0001F93CF93DF93EB01E82FD11110C0442379
:1025C00021F0F0E0E55CFD4FE4916E2F7E2F8E2F21
:1025D000DF91CF911F910F91FF90EF9008950D2FF4
:1025E00010E0282F30E0442329F0255C3D4FF9010D
:1025F000249130E0F6E0CF9FC0011124EFEFF0E02E
:10260000BF010E948A26AB018C2F90E0880F991F92
:10261000A5E5A49FB001A59F700D1124861B970B03
:10262000982F990F980FBF01601B710B629FD0010B
:10263000639FB00D729FB00D11248B2F9D9FB00131
:102640001124672F7727EF01C61BD70BBE01629FAE
:10265000E001639FD00D729FD00D11247F01E91A14
:10266000F108E09EB001E19E700DF09E700D112406
:10267000672F7727E61BF70BE29F8001E39F100D82
:10268000F29F100D1124E12F722F4230510599F065
:1026900048F44115510569F04130510581F0EB2FA7
:1026A0008D2F07C04430510569F080F04630510548
:1026B000B1F76E2F8DCFE22F7B2F812FFACFE22F34
:1026C0007D2FF7CFEB2F822F712FF3CF7B2F822F10
:1026D000ED2FEFCF41E00C94D51208950C946A13BE
:1026E000CF93DF93762FE901682F842F0E946E131A
:1026F000798368838A83DF91CF91089580918D02D9
:10270000982F9E7F29F48170826080938D020895B6
:102710008A34E8F381708864F8CF88E090E00C9404
:102720002D27CF92DF92EF92FF926B017C010E94E6
:102730007E13B701A60188E090E0FF90EF90DF9054
:10274000CF900C944B27EDE8F2E083E08083118278
:102750008FEF828383831482608171818281938170
:102760000C94911380918D0280FF02C0869508958C
:1027700080E0089590919102933018F49F5F9093B8
:102780009102882351F060918D0270918E028091A8
:102790008F02909190020C949113089581E00C9413
:1027A000BA1390919102992319F09150909391024C
:1027B000882351F060918D0270918E0280918F027A
:1027C000909190020C949113089581E00C94D11390
:1027D00070E00C948A1B6091080180918D0280FF4B
:1027E0000AC08091070123E0829FC00111248E5608
:1027F0009D4F0C94E8138091090190910A0123E008
:10280000829FF0011124EE56FD4F891750F7118277
:10281000108212828F5F3396F8CF90918D0290FFD5
:1028200014C09091090120910A0133E0939FF001B7
:102830001124EE56FD4F921710F00C94EB13818388
:10284000608342839F5F3396F6CF0895CF93DF93E3
:1028500000D00F92CDB7DEB790918D0290FF0AC0E5
:102860009E012F5F3F4F0E9470134B8169818A81C7
:102870000E940D140F900F900F90DF91CF9108954B
:10288000CF93DF93EC01EC81F0E0EA5CFE4F4491E2
:10289000EDE8F2E0628181810E9426148C818F5FD5
:1028A0008C83DF91CF910895CF93DF93EC01EDE816
:1028B000F2E0438162818C810E9426148C818F5FBB
:1028C0008C83DF91CF9108950F931F93CF93DF9364
:1028D00000D00F92CDB7DEB78C01809144028111F8
:1028E0000AC09E012F5F3F4F4FEF6FEF0E947013A2
:1028F0008A8180934402F8016481613069F080919B
:10290000440240E0662361F040E0623011F44091FF
:10291000440280E060E004C06091440240E080E056
:102920000E940D14F801848190E0019663E070E04C
:102930000E949E2684830F900F900F90DF91CF917D
:102940001F910F910895AF92BF92CF92DF92EF92B5
:10295000FF920F931F93CF93DF9300D00F92CDB7C9
:10296000DEB7182FF62E042FE22E90918D0290FFE5
:1029700029C0E92FE695AE2FB0E0AF56BE4F8C913F
:1029800080934E029E7F923059F59E012F5F3F4FFC
:10299000812F0E9470134B8169818A810E940D14DE
:1029A00010938E02F0928F0200939002EE2051F06D
:1029B00060918D0270918E0280918F0290919002B1
:1029C0000E9491130F900F900F90DF91CF911F9164
:1029D0000F91FF90EF90DF90CF90BF90AF90089550
:1029E000823019F400919002DBCF863019F41091F7
:1029F0008E02D6CF8930D9F3893191F6E9518E2FE5
:102A00008170D82EE695F0E0EA5CFD4FA590B49079
:102A1000C12CBB2460910B01C61618F00E94EB1369
:102A2000BFCF2C2D30E0A29EC001A39E900DB29E80
:102A3000900D112470E00E948A26812FD11013C0BE
:102A4000860F40910901420F532F511D9A01220F09
:102A5000331F240F351F2E563D4F402F6F2D0E94E0
:102A60007013C394D7CF861BECCFEDE8F2E09181D1
:102A7000282F4381628188E0890F0C94A31481E0A0
:102A80000C943515EDE8F2E09181282F43816281A5
:102A900088EF890F0C94A31481E00C944215EDE8A3
:102AA000F2E0628128E0620F08F46FEF282F438183
:102AB00081810C94A31481E00C944F15EDE8F2E0B1
:102AC000628128E0621B08F460E0282F4381818145
:102AD0000C94A31481E00C945E15EDE8F2E04381C0
:102AE00028E0420F08F44FEF282F628181810C9477
:102AF000A31481E00C946D15EDE8F2E0438128E029
:102B0000421B08F440E0282F628181810C94A314B9
:102B100081E00C947C1520E00C94A314EF92FF92BA
:102B20001F93CF93DF93EC0110E0EE24EA94F12C95
:102B300060910B01161770F00E94EB139A818C8143
:102B400090FF27C08F5F8C83DF91CF911F91FF9003
:102B5000EF90089520910901422F410F5527551FED
:102B6000CA019A01220F331F280F391F2E563D4FDD
:102B700070E0C7010E949E26962F8C8140919002A2
:102B800060918F02199F800D11240E9470131F5FA6
:102B9000CFCF8150D8CFBF92CF92DF92EF92FF92EA
:102BA0000F931F93CF93DF93FC0182810FEF80FF80
:102BB00001E010E080910B011817C0F00E94EB13A8
:102BC00080914602013009F051C0811102C080910C
:102BD0000B01815080934602DF91CF911F910F919D
:102BE000FF90EF90DF90CF90BF900895C0910901C2
:102BF000C12ED12CCC0DDD2DD11DCE01880F991FFA
:102C0000C80FD91FCE56DD4F198218821A8234E0C0
:102C1000E32EF12CB12C809146028B0D893004F10A
:102C20008770082E000C990BC816D90691F4809174
:102C300090028E9DA0018F9D500D112455954795B2
:102C4000559547959E0160918F0280918E020E945A
:102C50007013B00EF1E0EF1AF108E9F61F5FAACF8A
:102C600087FFDFCF90910B01890FDBCF90E00196BA
:102C700060910B0170E00E949E26ACCF0F931F93D2
:102C8000CF93DF938091090190910A0123E0829F05
:102C9000F0011124EE56FD4F891740F1C0E0D3E05A
:102CA00060910B01C61740F10E94EB1320910501C2
:102CB00080914502820F8093450290910601920F08
:102CC00090930601191654F4082E000C990B4091AC
:102CD0000B014150550B841795071CF0219520934B
:102CE0000501DF91CF911F910F91089511821082FC
:102CF00012828F5F3396D0CF0C2F10E070E0C801A6
:102D00000E949E2620910901820F482F50E02091B9
:102D10004502022E000C330B02171307BCF0209162
:102D20000601022E000C330B201731077CF08D9F1B
:102D3000900111242E563D4F4091900260918F02D8
:102D400080918E020E947013CF5FAACFFA01EE0F1E
:102D5000FF1FE40FF51FEE56FD4F11821082128205
:102D6000F3CF8F929F92AF92BF92CF92DF92EF926A
:102D7000FF920F931F93CF93DF93EC014C81042FAD
:102D800010E09801D8010E94E2269B01AC010E944C
:102D9000F8264B015C01E0E2F0E0E01BF10BA5E559
:102DA000B0E0AC019B010E94F8266B017C019F0101
:102DB000DF010E94DA269B01AC010E9403279B01E0
:102DC000AC01280D391D4A1D5B1DC701B6010E94CB
:102DD000B226F22E822F90E039E23F1560F143E0F7
:102DE000249F9001112435952795122F109500E00E
:102DF00085E5E82EEF1880910B01081758F10E9425
:102E0000EB139C8181E0992319F0903219F48FEF34
:102E10008093040180910401890F8C83DF91CF910D
:102E20001F910F91FF90EF90DF90CF90BF90AF90E8
:102E30009F908F90089525E530E0B901681B790BCC
:102E40009B01220F331F260F371F37FFCCCF2F5F79
:102E50003F4FC9CF8E2D01FD8F2D20910901622F8B
:102E6000600F7727771F9B01220F331F260F371F15
:102E70002E563D4F412F60918F020E9470130F5FBD
:102E8000BACF0F931F93CF93DF93EC0110E000E0D4
:102E900090910B019017110609F06CF40E94EB134E
:102EA0008C8190E00196817099278C83DF91CF917E
:102EB0001F910F91089520910901A801420F511D02
:102EC0009A01220F331F240F351F2E563D4F4C8180
:102ED00060918F0280918E0296959017110651F0A5
:102EE0004CF0442349F0409190020E9470130F5F10
:102EF0001F4FCECF4423B9F340E0F7CFEDE8F2E027
:102F000080818E7F808360817181828193810E9424
:102F1000911310924F022FEF80E792E021508040F2
:102F20009040E1F700C000000C94EB1360918D021B
:102F3000669570E04BE050E08CE091E00E940B273A
:102F4000892B19F481E080934F020E94701F9093A7
:102F5000480280934702089590918D0290FF35C0FA
:102F60009170811128C0926090938D02662351F078
:102F700060918D0270918E0280918F0290919002EB
:102F80000E94911360918D02669570E04BE050E0D5
:102F90008CE091E00E940B27892BA1F010924F0248
:102FA00081E080934A024091900260918F0280916B
:102FB0008E020C948B15853210F09864D5CF880F53
:102FC000982BD2CF0E949617EBCF0895682F90913F
:102FD0008D02969581E0890F853208F081E00C948E
:102FE000AC1781E00C94E617682F90918D029695AE
:102FF0008FEF890F09F484E20C94AC1781E00C94F4
:10300000F41761E00C94AC17EDE8F2E08081816088
:10301000808386950C94011880918D0280FD0C941C
:103020007E170C94041860E00C94AC1780914D024C
:1030300081112EC00E94AE0D811104C00E94530E5A
:103040000E94A3130E948D1360938D0270938E02D1
:1030500080938F02909390026E7F61F40E94A3137D
:103060000E948D1360938D0270938E0280938F0265
:10307000909390020E947E1310924F0280918D02D5
:1030800080FF03C086950E94131881E080934D0253
:1030900008950F931F93CF93DF9380914F0288235E
:1030A00009F486C080914E02E0918D02E695E81BFE
:1030B000E0934902823091F5F0E0EE5CFE4FE4913E
:1030C000CE2FD0E000E414E180914A02882361F021
:1030D00010924A020E94701F909348028093470208
:1030E00010924C0210924B020E94701FE091470216
:1030F000F09148028E1B9F0B8F3F9F4708F058C0EE
:10310000EC0FFD1FF0934802E093470287E492E042
:10311000F801DF91CF911F910F910994863049F406
:10312000F0E0E15DFE4FE491CE2FD0E004E514E144
:10313000CBCF893051F4E695F0E0E45DFE4FE491A9
:10314000CE2FD0E00EE815E1BFCF8F3051F4E695D9
:10315000F0E0E75DFE4FE491CE2FD0E00BEC15E1FF
:10316000B3CF853149F4F0E0EA5DFE4FE491CE2F14
:10317000D0E00EE316E1A8CFC8E2D0E001EB16E103
:10318000883109F4A1CF833239F4E4E2F1E0C5914A
:10319000D49104E614E198CFC4EFD1E001E417E143
:1031A000843209F491CFC0EDD7E00DE613E18CCF66
:1031B000DF91CF911F910F910895FA01811101C004
:1031C000FB010994CF93DF93C82FD62F0E94B2132F
:1031D0008C1740F00E94B2138D1720F4DF91CF912D
:1031E0000C94F1178C2FDF91CF910C9401181F9341
:1031F000CF93DF93EC01FB011281112309F4C0C0CE
:103200000E94C70C8272CD3CFCE5DF0709F49CC02C
:1032100008F044C0C73CECE5DE0709F481C0F0F4D7
:10322000C43C9CE5D90709F471C048F4C33CDC45B3
:1032300009F469C0812FDF91CF911F910895C53C9A
:103240009CE5D90709F467C04CE455E16FE375E1EB
:10325000C63CDC4579F70E94DD1853C0CA3CFCE54A
:10326000DF0709F467C068F4C83CECE5DE0709F441
:103270005CC04BE555E16AE675E1C93CDC4559F3B4
:10328000D9CFCB3C9CE5D90709F459C045EE53E1B1
:103290006EEC73E1CC3CDC45F1F2CCCFC23DFCE5F9
:1032A000DF0709F462C098F4CF3C9CE5D90709F424
:1032B00054C008F44EC0C03DFCE5DF0709F452C01D
:1032C000C13DDC4509F0B6CF6EE089E048C0C53DA0
:1032D0009CE5D90709F44FC058F4C33DFCE5DF076E
:1032E00009F446C0C43DDC4509F0A4CF88E132C0F2
:1032F000C63D9CE5D90709F441C0CE35DD4509F04E
:1033000099CF10E097CF0E940C18FBCF4EEF57E1FA
:1033100061EF77E1A0CF41EF57E16EEF77E19BCF0F
:103320004FE355E16CE475E196CF4AE655E16BE574
:1033300075E191CF48E855E169E775E18CCF49E740
:1033400055E168E875E187CF4EEC53E165EE73E136
:1033500082CF81E00E940118D4CF65E082E00E9414
:10336000E218CFCF68E086E0FACF64E18FE0F7CFD4
:1033700067E185E1F4CF62E289E1F1CF83E2EACF50
:1033800011E058CF86E090E00C942527682F86E066
:1033900090E00C943927EAEAF2E080818470896138
:1033A00080830C94C6190E94AE0D811104C00E9446
:1033B000530E0E94CB190E94C2198093AA02803238
:1033C00020F0877088618093AA029091AA02892FC9
:1033D000817090FF04C0892F8695869586950C9400
:1033E000D31A8091AA02982F969596959695933028
:1033F00040F49F5F990F990F990F8770892B8093E5
:10340000AA028091AA0281608093AA020E94C61932
:103410008091AA028695869586950C94D31A809100
:10342000AA02982F987F79F088508093AA02887F0B
:1034300091E009F490E08091AA0290FB80F98093DA
:10344000AA020E94C6198091AA0286958695869541
:103450000C94D31A8091AA0280FD13C081608093DE
:10346000AA02813019F489E08093AA028091AA020D
:103470000E94C6198091AA028695869586950C941D
:10348000D31A08958091AA0280FF08C08E7F80938E
:10349000AA020E94C61980E00C94D31A0895809164
:1034A000AA0280FD0C94421A0C942A1A9091AA0246
:1034B000892F8695869586958F5F8F71977084305A
:1034C000D8F4880F880F880F892B8093AA028091E7
:1034D000AA02887F91E009F490E08091AA0290FB13
:1034E00080F98093AA020E94C6198091AA0286954B
:1034F000869586950C94D31A9093AA02E8CF8430CF
:1035000008F083E09091AA029770282F220F220FD3
:10351000220F922B9093AA02987F21E009F420E0D9
:103520009091AA0220FB90F99093AA020C94D31ACE
:103530000E947F1A8091AA020C94C6199C01FB017B
:103540008281882349F12E3BFCE53F07C9F040F416
:103550002C3BECE53E0769F02D3B3C4579F00895A6
:10356000203C9CE5390791F070F0213C3C4589F006
:10357000089583E00E94981A80E0089580E0FACFD1
:103580000E940F1AF9CF0E94F119F6CF0E944F1A2C
:10359000F3CF0E94561AF0CF81E00895259A2D9816
:1035A00008952D9808958F929F92AF92BF92EF92B7
:1035B000FF920F931F93CF93DF93C82F8430C0F5F2
:1035C000811137C0809180008F77809380000E94A6
:1035D000D11AA0918600B09187002C2F30E00E9474
:1035E000E22623E030E040E050E00E94B22689016C
:1035F0009A0180918600909187006CE070E00E94B3
:103600008A2660177107D8F0C80169E070E00E944F
:103610008A267093890060938800DF91CF911F9173
:103620000F91FF90EF90BF90AF909F908F90089573
:10363000C3E080918000806880938000CACF809131
:10364000860090918700E0908600F0908700E091DE
:103650008600F0918700C6E0D0E0BE010E948A2675
:10366000060F171F211D311D4801590185E0880CE7
:10367000991CAA1CBB1C8A95D1F7C701BE010E94E8
:103680008A269F0150E040E0260F371F411D511D43
:10369000C501B4010E94B22649015A01E091860099
:1036A000F0918700CA01B9010E947A269B01AC0102
:1036B000DF010E94F8269B01AC01C501B4010E9404
:1036C0007A262FE096958795779567952A95D1F775
:1036D000009186001091870030E020E00617170760
:1036E0002807390708F095CF609186007091870010
:1036F00090CF08950E94CE1A82E88093800089E1DD
:10370000809381008FEF9FEF9093870080938600D6
:103710000C94D319539A4BB1477F5BB15860EFB704
:10372000F8949B01220F331F260F371F280F391FD4
:103730002817390741F4EFBF8FE594E00197F1F7BF
:1037400000C000000895DC016D91CD0178E05BB907
:10375000000000C067FF4BB9660F000000C000C04A
:1037600000C04BB900C07A9591F7E2CFCF93DF93B9
:10377000EC01FB018281882309F420C1C430FDE5FE
:10378000DF07C8F5CB3F9CE5D90730F49E012250F6
:103790003C452431310598F50E94C10D9093820279
:1037A00080938102C031FCE5DF0709F4E0C008F036
:1037B00061C0C8309CE5D90709F4CBC088F5C43096
:1037C000FCE5DF0709F4B3C0E8F4C2309CE5D90793
:1037D00009F4A7C0809181028260C330DC4509F4FE
:1037E000A3C080918102909182020E94CF0D0E941D
:1037F0003E0780E004C0C236EDE5DE0769F2DF91E6
:10380000CF910895809181028061C630FCE5DF0789
:1038100009F48AC008F48FC080918102806284C05C
:10382000809181028D7FCC309CE5D90709F47CC062
:1038300070F4809181028C60CA30FCE5DF0709F4E6
:1038400073C008F48AC0809181028E7F6DC0809120
:103850008102877FCE309CE5D90709F465C080914D
:1038600081028B7FCF30DC4508F45EC080918102FD
:103870008F7E5AC0CD3FFCE5DF0709F474C040F5E8
:10388000C4319CE5D90709F48AC058F4C231FCE57B
:10389000DF0709F474C008F46EC080918102837F51
:1038A00043C0CB3F9CE5D90709F449C008F04DC09F
:1038B000C531DC4509F095CF8091810282FB9927C3
:1038C00090F921E0922790FB82F990FB83F92CC0BC
:1038D000C1308DE5D80709F458C088F48091820280
:1038E0008360CF3FECE5DE0769F1809182028D7F36
:1038F000C115DD4538F1809182028C7F23C0C33031
:103900008DE5D80709F458C008F452C0C236DD4529
:1039100009F067CF90918102892F8F7E94FF80619B
:1039200003C0809181028160809381025ACF80918F
:1039300081028460F9CF809181028860F5CF809107
:1039400082028160809382024CCF809182028260E9
:10395000F9CF809181028064E7CF0E943E07809179
:1039600081028068E1CF809182028E7FEBCF8091CF
:1039700081028F7DD9CF809181028F7BD5CF0E942C
:103980003E07809181028F77CFCF80918202982F5E
:10399000909591708E7F892B90FB81F9D3CF0E94F7
:1039A0003E0790918102892F97FB87F98058BCCF01
:1039B00081E00E94550E15CF80E0FBCF81E01FCF44
:1039C000CF93DF93EB0186319C4511F50E94C70C24
:1039D0009A81992399F08A7A91E009F490E0909382
:1039E0005002811109C089E20E94A20C0E94170DA9
:1039F00080E0DF91CF91089585E3F6CF809150026A
:103A0000811104C089E20E94A90CF0CF85E3FBCFAD
:103A100081E0EFCF0F931F93CF93DF93C42FD22F6B
:103A2000FC0182818823C9F0409353020E94701FD9
:103A3000909352028093510280E28C0F883008F0FC
:103A400050C0C77081E001C0880FCA95EAF7DF91C6
:103A5000CF911F910F910C94B40410915302141341
:103A600035C080915102909152020E94881F883C7B
:103A7000910560F5C0E2CD0F1D17B9F080E2810F0E
:103A8000883040F4177081E001C0880F1A95EAF77A
:103A90000E94BB04C83048F481E09D2F977001C09C
:103AA000880F9A95EAF70E94B404802F0E94AC0414
:103AB000C830B8F4D77081E001C0880FDA95EAF712
:103AC000DF91CF911F910F910C94BB0480E28C0F7A
:103AD000883038F4C77081E001C0880FCA95EAF7D2
:103AE000EFCFDF91CF911F910F9108950F939C011C
:103AF000CB01243F4CE5340759F1A8F4293DFCE5FE
:103B00003F0701F12A3D4CE53407D1F1283D3C4502
:103B100091F406E221EE41EE68ED7CE50E940A1D7B
:103B200080E00F910895263FFCE53F07E9F0B0F0F3
:103B3000273F3C45F9F0FC018281882339F110923E
:103B40005302EFCF07E225EE45EE69ED7CE5E6CFC7
:103B500006E221EE40EE64EF7CE5E0CF07E225EEE1
:103B600044EE65EF7CE5DACF06E221EE42EE66EF49
:103B70007CE5D4CF07E225EE46EE67EF7CE5CECFBD
:103B800008E221E045EE6AED7CE5C8CF81E0C9CFCF
:103B90009093B7018093B601089590935902809352
:103BA00058020895E0915802F0915902309721F09F
:103BB0000190F081E02D099480E00895E091580291
:103BC000F0915902309799F020912301222359F066
:103BD0002091810227FF07C0DC012C9111962C93C4
:103BE000119726E02C930280F381E02D099408952B
:103BF00020915602309157022817390771F090939F
:103C0000570280935602E0915802F0915902309782
:103C100021F00680F781E02D099408952091540247
:103C2000309155022817390771F09093550280930F
:103C30005402E0915802F0915902309721F000842B
:103C4000F185E02D09940895FC01329680912301BD
:103C5000882321F0809181029EE187FF96E080E039
:103C6000915008F4089521912223D1F38F5FF8CF6A
:103C7000662301F1209123012223F1F0209181029A
:103C800027FF1AC0462F4695469546954E3190F42B
:103C9000677021E030E002C0220F331F6A95E2F71F
:103CA000840F911DFC01828190E02823392381E05B
:103CB000232B69F480E00895FC0132960896219147
:103CC000261721F0E817F907D1F7F4CF81E008951E
:103CD0009C01FC0132969FEF80E04191461751F024
:103CE0009F3F19F4411101C0982F8F5F8630A9F7CB
:103CF0009F3F09F40895290F311D97FD3A95F90169
:103D000062830895FC01329608962191261303C020
:103D1000DF0111971C92E817F907B9F70895E62F0C
:103D2000E695E695E695EE3168F4E80FF92FF11D7A
:103D3000677021E030E001C0220F6A95EAF78281C6
:103D4000822B82830895E62FE695E695E695EE317F
:103D500070F4E80FF92FF11D677021E030E001C029
:103D6000220F6A95EAF720958281282322830895FD
:103D700020912301222329F02091810227FD0C9418
:103D80008F1E0C94681E20912301222329F020917C
:103D9000810227FD0C94A31E0C94821EFC01329616
:103DA00080912301882351F08091810287FF06C012
:103DB0008EE1DF011D928A95E9F7089586E0F9CF3B
:103DC00008950C94E01E811105C081E080935A0291
:103DD0000C94E11E82E0FACF83E080935A020C94A7
:103DE000E11E0C94E31E81E080935A020C94E11EC4
:103DF0000C94F31E08958091B302843031F10E9437
:103E0000EA0210925B0288E190E020E40FB6F89499
:103E1000A895809360000FBE2093600083B7817FD8
:103E2000846083BF83B7816083BF7894889583B7AC
:103E30008E7F83BF0FB6F894A8958091600088614B
:103E400080936000109260000FBE08950895089559
:103E5000CF930E94261F0E943E120E94271FC0E09F
:103E60008C2F0E948311811105C0CF5FC530C1F72F
:103E7000CF91089581E0FCCF0E943E070C9462032D
:103E80001F921FB61F9211248F939F93AF93BF93DE
:103E900080915B02811113C08091AB029091AC02C2
:103EA000A091AD02B091AE024196A11DB11D8093CB
:103EB000AB029093AC02A093AD02B093AE02BF915F
:103EC000AF919F918F911F901FBE1F90189582E018
:103ED00084BD93E095BD9AEF97BD80936E000895E1
:103EE0002FB7F8948091AB029091AC02A091AD02F3
:103EF000B091AE022FBF08952FB7F8946091AB0236
:103F00007091AC028091AD029091AE022FBF0895E6
:103F10009C014FB7F8948091AB029091AC02A091B4
:103F2000AD02B091AE024FBF821B930B08957894FF
:103F30001F921FB61F9211248F939F93AF93BF932D
:103F40008091AB029091AC02A091AD02B091AE0213
:103F50000196A11DB11D8093AB029093AC02A0937A
:103F6000AD02B093AE02BF91AF919F918F911F9020
:103F70001FBE1F90189587E797E7909301088093DD
:103F8000000888E19AE00FB6F894A8958093600045
:103F90000FBE90936000FFCF80917F020895089537
:103FA000CF93DF93EC01809123018823B1F18091BD
:103FB000810287FF32C060E282E08093E9008FEFE8
:103FC0009091E800815095FD06C095ED9A95F1F726
:103FD00000008111F5CF8091E80085FF1BC0809122
:103FE000230170E050E040E0811104C050E040E067
:103FF00068E070E0CE010E94E9218091E8008E77B0
:104000008093E80080E2FE01AFE5B2E001900D92FE
:104010008A95E1F7DF91CF91089568E081E0CDCFF7
:1040200080935C0270935E0260935D028091B302A4
:10403000843001F582E08093E9008FEF9091E800F1
:10404000815095FD06C095ED9A95F1F7000081111C
:10405000F5CF8091E80085FF0DC050E040E063E0BF
:1040600070E08CE592E00E94E9218091E8008E7773
:104070008093E8000895BC0184E00C941020BC01FA
:1040800083E00C94102008958091B202811109C040
:104090000E9479230E94D6238091E200846080935D
:1040A000E20008951092B20208950C94F31E6091FC
:1040B000AF0281E0611101C080E00C94EC1E909190
:1040C000B30281E0943009F080E06091AF020C947B
:1040D000F11E42E061EC81E00E94F52242E261ECD7
:1040E00082E00E94F5229091B30281E0943009F0C1
:1040F00080E06091AF020C94E31E8091B5028330A2
:1041000009F460C030F48130C9F1823009F49CC0F8
:1041100008958A3009F488C08B3009F46EC0893064
:1041200009F04FC08091B402813209F04AC08091F9
:10413000B8029091B902029708F043C08091E8005C
:10414000877F8093E8008091E80082FF36C09091DD
:10415000F3008091F200029731F48091F1008130F8
:1041600011F0863021F48091F10080937F028091DC
:10417000E8008B778093E8000C9429238091B402A7
:10418000813AF9F48091E800877F8093E80080917C
:10419000B8029091B902892B61F460E28FE592E058
:1041A00070E00E9438228091E8008B778093E800CD
:1041B000089560E090E080E0F3CF8091B302811138
:1041C000C2CF08958091B402813AD9F78091B802A4
:1041D0009091B902892BA9F78091E800877F80939D
:1041E000E8008091E80080FFFCCF8091230180935C
:1041F000F1008091E8008E77BDCF8091B4028132CA
:1042000001F78091B8029091B902892BD1F6809183
:10421000E800877F8093E8000E9429238091B602FE
:10422000809323010C943E078091B402813249F6B9
:104230008091E800877F8093E8000E942923809185
:10424000B7028093800208958091B402813A09F008
:10425000B8CF8091E800877F8093E8008091E800E4
:1042600080FFFCCF80918002C2CF84B7877F84BF5C
:104270000FB6F894A89580916000886180936000E3
:10428000109260000FBE80E890E00FB6F894809323
:104290006100909361000FBE0C94F81E0E94792378
:1042A0000E94D623E2EEF0E08081846080837894DF
:1042B0000C945F2687E191E00C94CD1D8091B302B0
:1042C0008530A9F48091B302853011F00C943C1F25
:1042D0000E94FB1E8091B1028823A1F30E94281F37
:1042E000882381F30E94D3210E943E07EBCF0895DB
:1042F00008950C947B21292F33272330310519F1A0
:1043000068F42130310509F444C02230310509F444
:1043100045C090E080E030E020E025C0213231054A
:1043200049F122323105A9F780E490E02DE234E032
:1043300061157105C1F08DE690E020EC33E061304D
:10434000710589F0E6CF99278130910581F00097BA
:1043500029F00297F1F6EBE3F3E002C0EFE6F3E0B9
:10436000849190E09F01FA01318320830895EDE468
:10437000F3E0F6CF89E090E025E833E061157105C0
:1043800091F389E090E02EE933E06130710559F353
:10439000C0CF82E190E02EEA33E0E5CF8BE390E0FE
:1043A00023E733E0E0CF80E189BD82E189BD09B434
:1043B00000FEFDCF8091D8008F7D8093D800809142
:1043C000E00082608093E0008091E00081FDFCCFFE
:1043D0000895AF92BF92CF92DF92FF920F931F93F7
:1043E000CF93DF936C01EB018A010E944823F82EE2
:1043F000811123C00115110539F0F80180819181E7
:10440000C81BD90BC80ED91EB12CA12C2097A9F01E
:104410008091E80085FD22C08091E8008E7780932E
:10442000E80001151105A1F0F80180819181A80E25
:10443000B91EB182A08285E0F82E8F2DDF91CF9139
:104440001F910F91FF90DF90CF90BF90AF90089594
:104450000E9448238823D1F2F82EEFCFF6018191F4
:104460006F018093F1002197FFEFAF1ABF0ACECF03
:10447000FC018091BA029091BB0286179707A0F0C9
:104480006115710529F49091E8009E779093E800FA
:1044900090E06115710551F4911108C08091E80018
:1044A00082FF34C080E00895BC01F2CF8091B30256
:1044B0008823C1F18530C1F18091E80083FD30C0CF
:1044C0008091E80082FDEACF8091E80080FFE1CF93
:1044D0008091F3002091F200382F6115710519F0D9
:1044E0002830310558F091E02830310509F090E08E
:1044F0002091E8002E772093E800CBCF8191809324
:10450000F100615071092F5F3F4FE7CF8091B302F7
:10451000882341F0853041F08091E80083FFBECFD1
:1045200081E0089582E0089583E00895FC01809180
:10453000BA029091BB0286179707A0F0611571052A
:1045400029F48091E8008E778093E80090E061156F
:10455000710551F4911108C08091E80082FF35C0C7
:1045600080E00895BC01F2CF8091B3028823C9F1A5
:104570008530C9F18091E80083FD31C08091E80069
:1045800082FDEACF8091E80080FFE1CF8091F300C7
:104590002091F200382F6115710519F0283031058E
:1045A00058F091E02830310509F090E08091E80062
:1045B0008E778093E800CBCF84918093F100319681
:1045C000615071092F5F3F4FE6CF8091B30288237E
:1045D00041F0853041F08091E80083FFBDCF81E05C
:1045E000089582E0089583E00895982F973028F089
:1045F0008F708093E90081E008959093E900242F63
:10460000762F50E0981731F07091EC002091ED007A
:104610005091F00021FD02C09F5FE8CF3091EB0088
:104620003E7F3093EB003091ED003D7F3093ED0005
:104630003091EB0031603093EB007093EC002093ED
:10464000ED005093F0002091EE0027FDE5CF80E0D3
:1046500008958091B40287FF13C08091E80082FF23
:1046600006C08091E8008B778093E80004C08091B9
:10467000B3028111F2CF08958091B3028823D9F358
:104680008091E80080FFF8CF8091E8008E77ECCF32
:104690002091E4003091E50095E6A9012091EC001D
:1046A000822F817020FF06C08091E80080FF06C045
:1046B00080E008952091E80022FD1AC08091B302A5
:1046C000882389F0853089F08091EB0085FD0FC04B
:1046D0002091E4003091E50042175307F9F2915020
:1046E000E1F684E0089582E0089583E0089581E092
:1046F00008950E94E7230E94EF23E0EEF0E080811E
:1047000081608083E8EDF0E080818F77808319BC41
:10471000A7EDB0E08C918E7F8C9380818F7E80831B
:104720001092B20208950F931F93CF93DF930E94CC
:10473000E7230E94EF23C8EDD0E088818F7788833C
:1047400088818068888388818F7D888319BC1092D6
:10475000B3021092AF021092B1021092B00200EEBA
:1047600010E0F80180818B7F80838881816088835D
:1047700042E060E080E00E94F522E1EEF0E080811E
:104780008E7F8083E2EEF0E0808181608083808193
:1047900088608083F80180818E7F8083888180613A
:1047A0008883DF91CF911F910F910895E8EDF0E09C
:1047B00080818F7E8083E7EDF0E08081816080835F
:1047C00084E082BF81E08093B2020C949323E8EDF1
:1047D000F0E080818E7F80831092E2000895109235
:1047E000DA001092E10008951F920F920FB60F9217
:1047F00011242F933F934F935F936F937F938F93E6
:104800009F93AF93BF93EF93FF938091E10082FF5B
:104810000BC08091E20082FF07C08091E1008B7F96
:104820008093E1000E945E268091DA0080FF19C02B
:104830008091D80080FF15C08091DA008E7F809330
:10484000DA008091D90080FF96C080E189BD82E1C5
:1048500089BD09B400FEFDCF81E08093B3020E94C0
:1048600044208091E10080FF19C08091E20080FF28
:1048700015C08091E2008E7F8093E2008091E2007B
:1048800080618093E2008091D80080628093D8009C
:1048900019BC85E08093B3020E9457208091E1000B
:1048A00084FF2BC08091E20084FF27C080E189BD96
:1048B00082E189BD89B5982F917080FFFBCF8091EF
:1048C000D8008F7D8093D8008091E1008F7E809307
:1048D000E1008091E2008F7E8093E2008091E2000F
:1048E00081608093E2008091AF02882309F449C07F
:1048F00084E08093B3020E945F208091E10083FFF7
:1049000029C08091E20083FF25C08091E100877F6C
:104910008093E10082E08093B3021092AF02809115
:10492000E1008E7F8093E1008091E2008E7F809392
:10493000E2008091E20080618093E20042E060E06A
:1049400080E00E94F5228091F00088608093F00062
:104950000E945520FF91EF91BF91AF919F918F9150
:104960007F916F915F914F913F912F910F900FBE6B
:104970000F901F90189519BC1092B3020E945220FC
:1049800070CF8091E30087FD93E09093B302B3CFA3
:104990001F920F920FB60F9211242F933F934F93B4
:1049A0005F936F937F938F939F93AF93BF93CF93B7
:1049B000DF93EF93FF93D091E900DF708091EC00DB
:1049C000C82FC17080FDC0E81092E9008091F0000E
:1049D000877F8093F00078940E940C251092E90064
:1049E0008091F00088608093F000CD2BCF70C09351
:1049F000E900FF91EF91DF91CF91BF91AF919F912E
:104A00008F917F916F915F914F913F912F910F9077
:104A10000FBE0F901F9018951F93CF93DF93CDB7C4
:104A2000DEB7AA970FB6F894DEBF0FBECDBF84EBFA
:104A300092E02091F100FC012193CF01F2E08C3B48
:104A40009F07B9F70E947D208091E80083FF1EC177
:104A50008091B4029091B5029A3008F017C1E92F05
:104A6000F0E0E357F84D0C94D426803899F0823862
:104A700009F00CC18091B8028F70873008F006C130
:104A80008093E9008091EB0085FB882780F91092E4
:104A9000E90006C08091B0029091B102911182604C
:104AA0009091E800977F9093E8008093F100109236
:104AB000F1008091E8008E77E5C0882309F4D3C027
:104AC000823009F0E3C08091B6028111D6C0809196
:104AD000B8028F702FEF280F263008F0D7C08093D0
:104AE000E9002091EB0020FFC8C0933031F48091A1
:104AF000EB0080628093EB00C0C09091EB0090616E
:104B00009093EB0021E030E001C0220F8A95EAF794
:104B10002093EA001092EA008091EB008860EACFCF
:104B20008111B4C01091B6021F778091E3008078A4
:104B3000812B8093E3008091E800877F8093E800D9
:104B40000E9429238091E80080FFFCCF8091E30040
:104B500080688093E30082E0111183E08093B302C8
:104B600095C08058823008F091C08091B602909133
:104B7000B7028C3D23E09207A1F583E08A838AE2A5
:104B800089834FB7F894DE01139620E03EE051E2AE
:104B9000E32FF0E050935700E49120FF03C0E2952B
:104BA000EF703F5FEF708E2F90E0EA30C0F0C79655
:104BB0008D939D932F5F243159F74FBF8091E8006B
:104BC000877F8093E8006AE270E0CE0101960E9440
:104BD00038228091E8008B778093E80057C0C09618
:104BE000E7CF6091B8027091B902AE014F5F5F4F9D
:104BF0000E947921BC01892B09F448C09091E800FA
:104C0000977F9093E80089819A810E949622E1CF54
:104C10008038E1F58091E800877F8093E8008091FB
:104C2000AF028093F10045CF811130C09091B60260
:104C3000923060F58091E800877F8093E800909340
:104C4000AF020E9429238091AF02882311F084E0F3
:104C500005C08091E30087FDFACF81E08093B30225
:104C60000E94692013C08091B602813079F481E0FE
:104C7000933009F080E08093B1021092E9008091B6
:104C8000E800877F8093E8000E9429238091E80054
:104C900083FF0AC08091E800877F8093E8008091BD
:104CA000EB0080628093EB00AA960FB6F894DEBF0B
:104CB0000FBECDBFDF91CF911F9108950895CF937F
:104CC0008091B3028823A1F0C091E900CF70909148
:104CD000EC00892F817090FD80E8C82B1092E900CC
:104CE0008091E80083FD0E940C25CF70C093E900FD
:104CF000CF910895DB018F939F930E94F826BF9177
:104D0000AF91A29F800D911DA39F900DB29F900D1A
:104D100011240895AA1BBB1B51E107C0AA1FBB1F8A
:104D2000A617B70710F0A61BB70B881F991F5A9537
:104D3000A9F780959095BC01CD01089597FB072EAA
:104D400016F4009407D077FD09D00E948A2607FC4C
:104D500005D03EF4909581959F4F0895709561958B
:104D60007F4F0895A1E21A2EAA1BBB1BFD010DC0A7
:104D7000AA1FBB1FEE1FFF1FA217B307E407F5070B
:104D800020F0A21BB30BE40BF50B661F771F881FE7
:104D9000991F1A9469F760957095809590959B017D
:104DA000AC01BD01CF010895EE0FFF1F0590F491F6
:104DB000E02D09940E94E226332312F48A1B9B0BF8
:104DC0000C94F326A29FB001B39FC001A39F700D66
:104DD000811D1124911DB29F700D811D1124911D03
:104DE00008950E94E226B7FF0895821B930B089551
:104DF0000E94E226A59F900DB49F900DA49F800D68
:104E0000911D11240895B7FF0C94F8260E94F826EE
:104E1000821B930B0895FC014150504030F00190EB
:104E20000616D1F73197CF0108958827992708955D
:104E3000FB01DC0104C08D910190801921F44150E7
:104E40005040C8F7881B990B0895F999FECF92BD81
:104E500081BDF89A992780B50895A6E1B0E044E0B5
:104E600050E00C945F27A8E1B0E042E050E00C94E1
:104E70005F27262FF999FECF92BD81BDF89A019741
:104E800000B4021639F01FBA20BD0FB6F894FA9A92
:104E9000F99A0FBE08950396272F0E943A270E9481
:104EA0003927252F0E943A27242F0C943A27019660
:104EB000272F0E943A270C943927DC01CB01FC01F3
:104EC000F999FECF06C0F2BDE1BDF89A319600B463
:104ED0000D9241505040B8F70895F894FFCFFC046C
:104EE000FC042D052D05C0055C055C055C05DC0595
:104EF000680677067706CF065C055C05D8064D0781
:104F00004D075607560758075607560756074D07C9
:104F10004D075D07560756075D0735255D25462673
:0E4F20005D2546269025B12546260826142636
:104F2E00C8000F02010102000800080801191A1B2F
:104F3E001C1D1E1F202122CC1FD01F43203F203BB3
:104F4E0020CF1F01E200E900EA00B500B600B7006D
:104F5E00CD008301CC008A0192019401210223022B
:104F6E0024022502260227022A02B300B4006F0093
:104F7E007000818283E200E900EA00B500B600B756
:104F8E0000CD008301CC008A0192019401210223FD
:104F9E000224022502260227022A02B300B4006F61
:104FAE0000700081828334C697669490F731333255
:104FBE00360001020202020606060909090909095C
:104FCE000F0F0F0F0F0F151515181919191919198C
:064FDE0019191919232422
:00000001FF
