:100000000C943A020C9457020C9457020C94570229
:100010000C9457020C9457020C9457020C945702FC
:100020000C9457020C9457020C946F240C944225A4
:100030000C94921F0C9457020C9457020C94570284
:100040000C9457020C9457020C9457020C945702CC
:100050000C9457020C942A200C9457020C945702CB
:100060000C9457020C9457020C9457020C945702AC
:100070000C9457020C9457020C9457020C9457029C
:100080000C9457020C9457020C9457020C9457028C
:100090000C9457020C9457020C9457020C9457027C
:1000A0000C9457020C9457020C945702AC00AB000E
:1000B000680069006A0056005F0060006100570038
:1000C000A900A8006B006C006D0055005C005D008D
:1000D0005E006200AA00AE002152490053005400A5
:1000E00059005A005B005800247823782978217839
:1000F00000000000317832783478000027782578C5
:100100002A782278000000002E782F783078007C42
:100110002878267801002078000000002B782C78C1
:100120002D7800001E0F0500047F3F1F6432146409
:100130003214783C1E1E140A052223252628292A5B
:100140002C2D2F3032333536383A3B3D3E4042433A
:100150004547494A4C4E5051535557595A5C5E6079
:1001600062646668696B6D6F71737577797B7D7F8B
:1001700081838587898A8C8E90929496989A9C9E8A
:100180009FA1A3A5A7A8AAACAEAFB1B3B4B6B8B9A6
:10019000BBBCBEBFC1C2C3C5C6C7C9CACBCCCDCE0E
:1001A000D0D1D2D2D3D4D5D6D7D7D8D9D9DADADBF1
:1001B000DBDBDCDCDCDCDCDDDDDDDDDCDCDCDCDC7D
:1001C000DBDBDBDADAD9D9D8D7D7D6D5D4D3D2D2BC
:1001D000D1D0CECDCCCBCAC9C7C6C5C3C2C1BFBEA4
:1001E000BCBBB9B8B6B4B3B1AFAEACAAA8A7A5A30F
:1001F000A19F9E9C9A98969492908E8C8A898785CE
:1002000083817F7D7B79777573716F6D6B696866AC
:100210006462605E5C5A5957555351504E4C4A497E
:1002200047454342403E3D3B3A3836353332302F26
:100230002D2C2A292826252322FFAA7F554000019C
:100240000101010101010101020202020202020296
:100250000203030303030303030404040404040468
:10026000050505050506060606060707070707082C
:10027000080808090909090A0A0A0B0B0B0C0C0CDF
:100280000D0D0D0E0E0E0F0F0F1010111111121279
:1002900013131414151516161717181819191A1AF6
:1002A0001B1B1C1D1D1E1E1F202021222223242457
:1002B000252626272829292A2B2C2D2D2E2F303193
:1002C0003232333435363738393A3B3C3D3E3F40A5
:1002D0004142434445464748494A4C4D4E4F505190
:1002E0005354555658595A5B5D5E5F61626465664A
:1002F00068696B6C6D6F7072737577787A7B7D7ED1
:100300008082838587888A8C8E8F91939596989A20
:100310009C9EA0A2A3A5A7A9ABADAFB1B3B5B7BA38
:10032000BCBEC0C2C4C6C9CBCDCFD1D4D6D8DBDD0C
:10033000DFE2E4E7E9EBEEF0F3F5F8FAFDFF100396
:1003400047006800650072006B0069006E000000E5
:10035000200334003000200050006500720063006C
:1003600065006E007400200043006C0075006200A0
:1003700000000403090409023B00020100A0FA097D
:1003800004000001030101000921110100012244C0
:1003900000070581030800010904010001030000B2
:1003A00000092111010001226D00070582032000D0
:1003B00001120100020000000825406060010001F8
:1003C00002000105010980A101850319012AB70076
:1003D000150126B700950175108100C0050C0901B3
:1003E000A101850419012AA002150126A002950188
:1003F00075108100C005010906A1018506050719D0
:10040000E029E71500250195087501810205071906
:100410000029EF1500250195F075018102050819E5
:10042000012905950575019102950175039101C09A
:1004300005010906A101050719E029E715002501B5
:10044000950875018102950175088101050719005C
:1004500029FF150026FF009506750881000508197B
:100460000129051500250195057501910295017574
:10047000039101C011241FBECFEFDAE0DEBFCDBF74
:1004800011E0A0E0B1E0EEE6F2E502C005900D92C9
:10049000AA3CB107D9F723E0AAECB1E001C01D9254
:1004A000A731B207E1F70E94FA110C94ED280C94E1
:1004B00000008230B8F46530A8F4463098F4E42F98
:1004C000F0E096E0699FE00DF11D11249EE1899F07
:1004D000E00DF11D1124EE0FFF1FE455FF4F859134
:1004E0009491089581E090E008950E945902089542
:1004F00081E008950E947802089581E008950E94A5
:10050000780208950E947F02089508950E9485024E
:100510000895A6E0B0E0EFE8F2E00C949927498353
:100520005A839E833091D10189819A8131111AC0F9
:100530003E81332399F0222389F00E94A108182FCD
:10054000682F89819A810E947D0869817A81812F33
:100550000E94A40F2696E3E00C94B5270E948F0812
:10056000182FF3CF0E94A10869817A81F1CFFC0195
:10057000262F4081518162817381848195810E94FF
:1005800089020895CF93DF93D82FC92F61E00E948D
:10059000B7026D2F7C2F0E947A02DF91CF910895D0
:1005A000CF93DF93D82FC92F60E00E94B7026D2F41
:1005B0007C2F0E948602DF91CF91089581E00895FB
:1005C0000E94DE020895CF93C82F0E944F078C2F00
:1005D0000E94E0022FEF84E39CE021508040904095
:1005E000E1F700C00000CF91089581E00E94E3028E
:1005F0000E944E20089580E00E94E3020E945F2046
:1006000008950F931F93CF93DF938C0161E00E94B5
:10061000B702EC01F801858181110E946B19B801C4
:10062000CE010E948202882309F442C0B801CE01A3
:100630000E94DB1A8823E1F1B801CE010E949E1DC1
:100640008823B1F1B801CE010E94531C882381F1A7
:10065000B801CE010E94281C882351F1B801CE01B7
:100660000E948B19882321F1F8018581882381F06C
:10067000CA35FCE7DF0739F178F4C130ECE7DE0773
:10068000F9F0C330FCE7DF07C9F0C115DC4771F0B2
:10069000C8010E947D020DC0CB35ECE7DE07B1F04A
:1006A000CC35DC47A9F70E94D50CF2CF0E94F502A9
:1006B00080E0DF91CF911F910F9108950E94E70C88
:1006C0000E94FB02F5CF0E94DF0CE2CF0E94E30CF8
:1006D000DFCF0E946F1F80E00E94BA1A0E9495032C
:1006E00008950E940E1A0E9499030E94741F089593
:1006F000089581E008950895CF93DF93D82F0E9445
:100700007903C82F882319F08D2F0E947B038C2F2B
:10071000DF91CF9108950895CF93C82F0E94780359
:100720008C2F0E947C03CF91089580E00E948C035F
:1007300008950E94E41D0E948C030895CF930E94A7
:10074000E41DC82F8091CC018C1779F0C093CC01A7
:100750000E94FE1F6093CD017093CE018093CF0164
:100760009093D0018C2F0E948C03CF910895ADE01F
:10077000B0E0EDEBF3E00C949A27488759876A873D
:100780007B878C879D8791110E94E00B1F8286E0FA
:10079000FE013896DE01119601900D928A95E1F7DF
:1007A0008D8181110DC029813A814B815C816D81E0
:1007B0007E818F810E94260B2D96E2E00C94B62755
:1007C000CE0101960E94C2028111EDCFF5CFFC014E
:1007D0008481813021F4808191810E94D308089521
:1007E000CF93C82F8823C9F08238C9F40E94F11D25
:1007F00081FD13C089E30E94091F0E94780C2FEF2E
:1008000037EE83E0215030408040E1F700C0000027
:1008100089E30E94201F0E94780CCF9108958338AD
:10082000A1F40E94F11D80FDF8CF83E50E94091F0D
:100830000E94780C9FEF21EE34E091502040304030
:10084000E1F700C0000083E5E4CF8438A1F40E9402
:10085000F11D82FDE2CF87E40E94091F0E94780CFF
:100860008FEF91EE24E0815090402040E1F700C0EE
:10087000000087E4CECF8CEF8C0F813A70F48C2F80
:100880000E947B1E882329F08C2F0E94201F0E942B
:10089000780C8C2F0E94091FBECF80E28C0F88300D
:1008A00048F4C77081E001C0880FCA95EAF70E943A
:1008B000C10BB1CF8BE58C0F833038F42C2F245231
:1008C000330BC9010E940E1EA8CFC85ACB3108F0C5
:1008D000A4CFEC2FF0E0EE0FFF1FEA5DFE4F80810A
:1008E00091810E94341E99CF882309F44DC082382B
:1008F00079F40E94F11D81FF47C089E30E94091F1E
:100900000E94780C89E30E94201F0E94780C0895B1
:10091000833859F40E94F11D80FF36C083E50E94A0
:10092000091F0E94780C83E5EECF843859F40E94A9
:10093000F11D82FF29C087E40E94091F0E94780CE4
:1009400087E4E1CF9CEF980F913AE8F290E2980F9C
:10095000983050F4877091E001C0990F8A95EAF7BA
:10096000892F0E94C70BD1CF9BE5980F933028F4B5
:1009700080E090E00E940E1E0895885A8B3120F48A
:1009800080E090E00E94341E08951F93CF93DF9380
:10099000182FEB010E94F003209739F4812F0E9459
:1009A0007404DF91CF911F9108958FE99FE0019723
:1009B000F1F700C000002197EFCF60E070E08933CD
:1009C00011F460E570E00E94C5040895882321F0C9
:1009D0000E94C10B0E94780C0895882321F00E9488
:1009E000C70B0E94780C0895A0E0B0E0EAEFF4E0B5
:1009F0000C9494276C01D62FC72FFC010581F6803B
:100A0000F2948FE0F8220E94B60BE82E8823F9F0CA
:100A1000E02E0023E1F08C2F807F803461F080E2B3
:100A20008D0F8830A0F18C2F807E803221F4D2305F
:100A300070F1FF2061F18091DA0282FF28C082E02C
:100A40000E94A80C0E94B60B91E0E82EE9268C2F9C
:100A500082958F70883009F4E7C0B0F58430C8F40F
:100A60001C2F1F70823008F440C0C07FC03211F0CC
:100A70001295107FDD2309F467C0D13009F497C0C7
:100A8000002309F4A3C0FF2009F47AC041C0E12C7F
:100A9000DECF843009F4ABC0EE2089F00E94B20BA7
:100AA00080FD0DC0F60115820E94AC0B0E94DA0792
:100AB000C6010E941A070E94AC0B0E94EA07CDB73C
:100AC000DEB7E8E00C94B027893009F424C18A5FCE
:100AD0008F70823008F7D23F09F02EC18C2F8F71B2
:100AE000011127C10E94DA07CEC0C03110F0129563
:100AF000107F002399F0112359F080E28D0F883088
:100B000010F0D11107C0812F0E94C10B0E94780CF8
:100B10008D2F28C0812F0E94D20BF8CF8D2F0E94DD
:100B20007404112309F4B8CF80E28D0F883010F0DF
:100B3000D11104C0812F0E94C70B03C0812F0E94D6
:100B4000D80B0E94780CA8CF8091DA0282FD14C0E5
:100B5000002359F0112329F0812F0E94C10B0E941C
:100B6000780C80E00E94F00397CF80E00E9474042C
:100B7000112309F491CFDECF002369F0F11004C0F6
:100B8000812F0E94E60488CFF1E0FF1285CF812FEC
:100B90000E94F80B81CFF1107FCF812F0E94ED04CE
:100BA000812F0E94040C812F0E94E70B75CF002338
:100BB00029F025E02F1508F46FCFE2CF84E08F15E0
:100BC00008F46ACF812F0E94ED0466CFFF20D1F395
:100BD000D93349F49FEFE7EEF3E09150E040F04065
:100BE000E1F700C000008D2F0E94740455CF8C2FB8
:100BF000869586958370882369F0813009F04CCF03
:100C00008D2F9C2F9370011102C080E090E00E9414
:100C1000341E42CF8D2F9C2F9370011102C080E0B3
:100C200090E00E940E1E38CF8C2F8370811139C046
:100C3000011129C04D2F429546954770440F440F2E
:100C40002D2F2F7030E0042E02C0220F331F0A9484
:100C5000E2F780E090E0D4FF09C08FE090E002C0AE
:100C6000880F991F4A95E2F780959095C695C6958D
:100C7000C370822B932BC23071F0C33079F0C13036
:100C800039F00E94AA070E94E41D0E948C0304CF41
:100C90000E94A107F8CF0E94B307F5CF0E949E07DC
:100CA000F2CF002361F1C0FFEECF4D2F4295469564
:100CB0004770440F440F2D2F2F7030E0042E02C0D8
:100CC000220F331F0A94E2F780E090E0D4FF09C0BE
:100CD0008FE090E002C0880F991F4A95E2F7809557
:100CE0009095C695C695C370822B932BC23069F040
:100CF000C33071F0C13031F00E941508C4CF82308A
:100D000010F2D3CF0E940C08BECF0E941E08BBCFAA
:100D10000E94C207B8CFCF70002339F08C2F0E94F9
:100D2000DA078D2F0E94E604AECF8D2F0E94ED04CE
:100D30008C2F0E94EA07A7CFD33F70F4D03FB9F0C1
:100D4000D13F89F1002309F44CC0FF2009F446C0CB
:100D50008D2F0E94F00397CFD33FB9F0D43FF9F025
:100D60000111F3CFF1104AC08C2F8F71E2CF002315
:100D700049F024E02F1508F486CF8C2F8F710E9444
:100D8000FC0781CF85E0F816F6CF002329F08C2FE1
:100D90008F710E94CE0777CF0E94C90774CF8091D0
:100DA000DA0282FD05C08C2F8F71002311F29ACEDA
:100DB000002349F0CF718C2F0E94DA0763E08C2F5B
:100DC0000E948A0C60CF81E00E94A80C91E09F15E0
:100DD00008F059CF82E00E94A80C55CF8C2F8F715C
:100DE00081CEFF2009F2D93349F4EFEFF7EE23E08B
:100DF000E150F0402040E1F700C000008D2F0E943C
:100E0000740441CF0F931F93CF93DF93EC0168815C
:100E100079818D810E94E0088C010E9427080E9440
:100E20009D07B801CE010E94F404DF91CF911F917C
:100E30000F910895CF93DF93EC018C81882399F073
:100E4000CE010E940103811111C00E94B60B8823BC
:100E500051F08D81882339F08091DA0282FF03C03E
:100E600082E00E94A80CDF91CF910895CE010E94EC
:100E70000207CE010E94D002F6CF80E090E00E94EF
:100E80000E1E80E090E00E94341E0E94E00B0E9443
:100E9000780C08950E94371F0E943D0708950E9414
:100EA000CF0B0E944A070895282F92959F70963085
:100EB00091F060F4925F9F70923030F481E0203FB7
:100EC00079F030F4283E30F080E008959A5FF3CF57
:100ED000243FD1F7089581E0283EE0F3213FF9CF88
:100EE0000895FC018481882339F0808191810E94DA
:100EF000D3080E945407089580E00895A6E0B0E06A
:100F0000E4E8F7E00C949A272696E2E00C94B627E2
:100F1000A7E0B0E0EEE8F7E00C949A272796E2E02D
:100F20000C94B62708950E94920708950E94930793
:100F30009093E5018093E401089508950E94960737
:100F400008952091E4013091E501822B932B0E94BA
:100F5000960708952091E4013091E50182239323BF
:100F60000E94960708952091E4013091E5018227BF
:100F700093270E94960708950E94920708950E9461
:100F8000BC0708950E94BF079093E3018093E2019C
:100F9000089580E090E00E94C207089521E030E0CB
:100FA000A90102C0440F551F8A95E2F7CA010E94A9
:100FB000C207089521E030E002C0220F331F8A9556
:100FC000E2F78091E2019091E301822B932B0E9442
:100FD000C207089521E030E002C0220F331F8A9536
:100FE000E2F7209530958091E2019091E301822310
:100FF00093230E94C207089521E030E002C0220F2F
:10100000331F8A95E2F78091E2019091E3018227F4
:1010100093270E94C20708952091E2013091E301D5
:10102000822B932B0E94C20708952091E2013091F8
:10103000E301822393230E94C20708952091E201D5
:101040003091E301822793270E94C20708950895F3
:101050009B01677091E001C0990F6A95EAF763E020
:10106000369527956A95E1F7220F331F220F331F1C
:10107000FA01E20FF31F40E050E0682F70E0819129
:10108000DF0111979B01042E02C0369527950A9423
:10109000E2F7217021952827292328272C934F5FD9
:1010A0005F4F4430510559F708959C01982F977070
:1010B00083E0369527958A95E1F7220F331F220F9B
:1010C000331FFB01E20FF31F40E050E080E021916D
:1010D00030E0092E02C0369527950A94E2F7217078
:1010E0003327042E01C0220F0A94EAF7822B4F5FA8
:1010F0005F4F4430510559F70895282F862F9530BA
:1011000068F4263058F4622F70E026E0929F600D5C
:10111000711D112442ED51E00E9428080895292FE5
:10112000953068F4863058F490E062ED71E036E076
:10113000239F800D911D11240E945508089580E081
:101140000895A0E0B0E0E7EAF8E00C9493278C0162
:10115000E090E201F090E3018091E4019091E501DB
:10116000E82AF92ACFE0D0E0CC24C394D12CC601E0
:101170000C2E02C0880F991F0A94E2F78E219F213E
:10118000892B49F4219798F7B12C8B2DCDB7DEB779
:10119000E9E00C94AF27BC2EB8018C2F0E94B00F51
:1011A000019781F3F2CFCF93DF93D82FC92F0E94FD
:1011B000A1086D2F7C2F0E94B00FDF91CF91089571
:1011C0001F93CF93DF93162FD72F9091D10199239F
:1011D00041F0862F972F0E94D308DF91CF911F9166
:1011E0000895882381F0862F972F0E94A108C82F89
:1011F000682F812F9D2F0E947D08612F7D2F8C2FBE
:101200000E94B00FEACF862F972F0E948F08C82F19
:10121000F4CF0F931F93CF93E091E601C7E0809145
:10122000E7018E1304C0CF911F910F9108950E2FE7
:1012300010E0CE9FF0011124E851FE4F2081318152
:10124000428153816481758186810E948807F801FB
:101250003196E770E4CF2091200230912102409135
:101260002202509123026091240270912502809104
:1012700026020E948807089580912602803178F422
:1012800080912502882359F0E091E6012091E70141
:10129000309121024091200257E02E1301C00895A1
:1012A0006E2F70E05E9FF0011124DF01A851BE4F48
:1012B00014968C911497882361F111968C91119753
:1012C000831327C08C91841324C015968C91159795
:1012D00081111FC012968D919C91A0912202B09114
:1012E00023028A1B9B0B883C910598F4809126026F
:1012F0008F70806180932602E251FE4F80818F7053
:101300008061808380E292E00E941A070E940909AE
:101310000895FB013196E770C0CFE091E60190910E
:10132000E70127E0E91302C080E00895AE2FB0E0A6
:101330002E9FF0011124E851FE4F3181361306C073
:101340003081381303C03581341304C0FD01319658
:10135000E770E8CF81E008958F929F92AF92BF929D
:10136000DF92EF92FF920F931F93CF93DF93CDB74E
:10137000DEB72D970FB6F894DEBF0FBECDBF8C0140
:1013800086E0F801DE01189601900D928A95E1F74A
:10139000F801E080F580A280B380848190E2892EFC
:1013A00092E0992E9091240291111BC0882309F498
:1013B000FCC0FF2009F43DC1C8010E9471078823C9
:1013C00009F437C187E0F801D40101900D928A95A4
:1013D000E1F7C4010E94E7030E943C090E942B0927
:1013E000E4C0D09025022091220230912302A50171
:1013F000421B530BDD2009F4DBC0483C510508F0CB
:10140000A6C0882309F4D1C09091210291808091D7
:101410002602803108F06BC0991228C090912002FA
:101420009E1124C0F1105DC08F70806180932602F0
:101430000E942B0980E292E00E941A078091260206
:10144000F8018683F12C8F2D2D960FB6F894DEBF10
:101450000FBECDBFDF91CF911F910F91FF90EF9005
:10146000DF90BF90AF909F908F900895F11039C09A
:1014700040E0692D8E2D0E948D0940E0692D8E2D52
:101480000E948D09F82E8111DDCF888599850E94F3
:10149000D308292F22952F70903450F49F7022305A
:1014A00080F0992399F0F8019681903178F4CBCFB0
:1014B0002A5F2F70223078F0C8010E941A07FD2C95
:1014C000C2CF992319F0882309F4BDCF805E8830FC
:1014D00008F4B9CFF1CF803F08F4B5CF815F8230F7
:1014E000F7CF80912602816080932602ABCF9912BC
:1014F00007C0909120029E1103C0FF2009F479C01B
:10150000C8010E947107882309F493C0FF2009F4E1
:1015100090C080912602803288F020912002309184
:1015200021023A832983BC82AB82909124029D835D
:101530001E828F83CE0101960E941A0787E0F80170
:10154000A0E2B2E001900D928A95E1F745CF90912B
:1015500026029031A0F4488559856A857B858C8563
:101560009D850E947E0780E292E00E941A0787E034
:10157000F40111928A95E9F70E942B0963CF882321
:10158000A1F02091210281812813BACF80912002FD
:101590008E11B6CFF110B4CF9683C8010E941A07FE
:1015A00087E0F40111928A95E9F7FF24F3944BCF79
:1015B000483C510508F041C08823B9F3FF20C9F128
:1015C00090912102818198132AC0809120028E116E
:1015D00026C08091260280FD19C08031B8F0868334
:1015E000807F803F39F08681982F907F905F8F7049
:1015F000892B8683C8010E941A0787E0F801A0E2C0
:10160000B2E001900D928A95E1F7E8CE87E0F8010B
:10161000A0E2B2E001900D928A95E1F7C6CFC80131
:101620000E94710781118ACF809126028160809388
:101630002602C8010E941A07B8CF488559856A85D5
:101640007B858C859D850E947E0791CFAEE0B0E0C2
:10165000ECE2FBE00C949927288739874A875B875F
:101660006C877D878E87CE0108960E94AC098823FF
:10167000B1F06C85662341F0288539854A855B8504
:101680007D858E850E94880717E08091E601909104
:10169000E70189133EC02E96E3E00C94B52787E05E
:1016A000FE013896DE01119601900D928A95E1F7C0
:1016B0002091E7014091E6018C85882329F330E0F1
:1016C000C90101968770992750E08417950799F012
:1016D00097E0929FD001939FB00D1124A851BE4F67
:1016E000FE01319601900D929A95E1F78093E70102
:1016F0000E940909C9CF0E944F071092E70110927A
:10170000E60187E0E0E2F2E0DF011D928A95E9F769
:10171000BBCF189FC001112488519E4F0E94AC0975
:10172000882309F4B8CFE091E6011E9FF00111244F
:10173000E851FE4F2081318142815381648175815E
:1017400086810E9488078091E60190E0019687706B
:1017500099278093E60199CF80914F0286958695CF
:101760008695089580914F028770089590914F0259
:10177000977081E0911101C080E0089580917B0213
:10178000089590917B02982B90937B020895982F57
:10179000909580917B02892380937B02089510921B
:1017A0007B02089590917A02982B90937A02089583
:1017B000982F909580917A02892380937A020895D8
:1017C00010927A02089508950E94E30B0895909173
:1017D0005002292F2823222331F0809589238093DA
:1017E00050020E94E40B089508950E94F40B08959E
:1017F00090915102292F2823281729F0982B909394
:1018000051020E94F50B089590915102292F28232F
:10181000222331F080958923809351020E94F50B99
:10182000089580915102882329F01092510280E09E
:101830000E94F50B0895CF93DF93C0917B028091B6
:101840007A02C82BD0915102DD2331F00E945A1E3A
:1018500081110E94110CCD2B8C2FDF91CF91089517
:10186000CF93DF93C0910601D09107010E941B0C1A
:101870008883C0910601D091070148E050E067E4F9
:1018800072E0CE010E946028892B59F088E0FE01A9
:10189000A7E4B2E001900D928A95E1F7CE010E9493
:1018A000F41DDF91CF910895CF93DF93C091040190
:1018B000D09105010E941B0C8983C0910401D09135
:1018C000050140E250E067E272E0CE010E9460282C
:1018D000892B59F080E2FE01A7E2B2E001900D925F
:1018E0008A95E1F7CE010E94FF1DDF91CF91089507
:1018F00080912501882339F08091D90287FF03C0A8
:101900000E94540C08950E94300C089508950E947E
:10191000860C08959091DA0292FF11C098E0899F99
:1019200090011124622B60934F020E94DA0780918C
:101930004F028695869586950E94870C08950E9491
:10194000DA07089510924F0280E00E94870C0895F4
:1019500090914F028095892380934F02282F277002
:1019600021110DC0891759F09091DA0292FF07C03A
:101970008695869586950E94EA070E94A20C089596
:101980009091DA0292FB222720F9281769F080FB58
:1019900092F99093DA028091D9029091DA020E9432
:1019A000080D82E00E94A80C08958091DA0282FB63
:1019B000882780F991E089270E94C00C089581E072
:1019C0000E94C00C089580E00E94C00C08956FEF43
:1019D0007FEF80E090E00E94B828089580E090E0DA
:1019E0000E9484289C0181E0263E3E4F09F080E061
:1019F000089582E090E00E947628089583E090E0C8
:101A00000E947628089584E090E00E94842808953A
:101A1000BC0184E090E00E94B8280895AB01BC01AD
:101A20008FE090E00E94AC280895AB01BC0183E1F7
:101A300090E00E94AC28089560E070E0CB010E9425
:101A4000150D089560E070E0CB010E940E0D0E941C
:101A50001C0D0895A8E0B0E0E0E3FDE00C949A27A7
:101A600066EE7EEF80E090E00E94B82860E082E0C1
:101A700090E00E949A2881E090E09093E5018093A5
:101A8000E40161E083E090E00E949A2860E074E164
:101A900084E090E00E94B82860E086E090E00E9438
:101AA0009A2860E087E090E00E949A2840E050E0A9
:101AB000BA0188E090E00E94AC2860E084E290E007
:101AC0000E949A2860E087E190E00E949A2860E0F6
:101AD0008CE090E00E949A2860E08DE090E00E9407
:101AE0009A2819821A821B821C821D821E821F82E2
:101AF000188648E050E068E170E0CE0101960E944F
:101B00008A2840E050E0BA0180E290E00E94AC28D0
:101B10000E94220D2896E2E00C94B6270E942A0D1E
:101B20000895682F8EE090E00E949A280895A6E01C
:101B3000B0E0EDE9FDE00C9498270E94F21F8C01C3
:101B400080917C0290917D028017910779F0198233
:101B50001A820E94F21FBC0149815A8180E090E004
:101B60000E94B70310937D0200937C022696E4E066
:101B70000C94B4270E94FE1F609387027093880222
:101B80008093890290938A02609383027093840207
:101B900080938502909386020895089508950E9487
:101BA000CD0D089508950E94D20D089588EA90E120
:101BB0000E9407120E94CE0D0E94CF0D089581E071
:101BC00008950E94DF0D08950E94DF0D0895089585
:101BD00008950E94E70D0E94E80D08950E94EE0C02
:101BE000811102C00E948E0D0E94F90C80938B021D
:101BF0000E94030D9093DA028093D9020E94251C63
:101C00000E94FE0C90E00E949E078091E20190915C
:101C1000E3010E94BF0708950E94E91F0E94581126
:101C20000E94EE0D0E948B030E94C81B0E940E1A98
:101C30000E948E180E94D30D0895A6E0B0E0E3E262
:101C4000FEE00C9491270E94E10D81110CC00E94CE
:101C5000970D0E946C190E94C71B0E949E03269636
:101C6000EBE00C94AD270E946E118EE7A82E82E067
:101C7000B82E750110E0F70101917F01812F0E94BC
:101C8000B2101F5F153009F443C00817A1F380910B
:101C90008B0281FD0E94B8100E94E40DC82E00E066
:101CA00099249394802F0E94B210182FF5019191DE
:101CB0005F01891739F1D82ED926F12CEE24E3944F
:101CC0008D2D8E218823B1F0CC20A1F0F9820A83DA
:101CD0000E94F21F9C838B839D8291E0812F8E2135
:101CE000811101C090E049815A816B817C818D8195
:101CF0000E94B703F394EE0CF6E0FF12E1CFF5017A
:101D0000319710830F5F053069F60E94BA0DA1CF9D
:101D10000813BDCF9CCF1F93CF93DF930E94B50FC5
:101D2000EC01811522E5920708F053C0811540E5CA
:101D3000940708F0DDC0803E9105F8F48D3C9105D4
:101D400008F0AEC0883A910580F4853A910508F014
:101D500099C08130910521F00497813A910550F4A2
:101D6000CE01DF91CF911F910895885A91094B9729
:101D700008F48BC0C0E0D0E0F3CF811550E49507A4
:101D8000F8F4C11580E2D80708F0CBC0C83ED105F1
:101D900038F3CE019A9581159F4160F78D2F0E94EF
:101DA0005910182FCE0199270E94B50F212F30E02E
:101DB000322F2227E901CC27DF71C82BD92BD0CFB6
:101DC00099270E94B50FCC27DF70C82BD92BD06A7A
:101DD000C7CF803842E59407C8F5803652E59507AD
:101DE00008F067C0C03482E5D807B0F08C2F869524
:101DF0008695877020E2829FC0011124C37021E084
:101E000030E0A90102C0440F551FCA95E2F7EA016C
:101E1000C82BD92BDC68A4CFC03252E5D50708F017
:101E200041C08C2F8695869520E2829FC0011124A7
:101E3000C37021E030E0A90102C0440F551FCA95CC
:101E4000E2F7EA01C82BD92BDD688ACF803C52E546
:101E5000950760F48F71C03AD24508F03FC090E01A
:101E6000982F8827EC01C46FD06A7ACF805C9245A6
:101E7000809708F07FCFDC2FCC27CC27DF71C06F95
:101E8000D06A6ECFA497D0646BCFC85AD0E0CC0F85
:101E9000DD1FC45ADE4F0990D881C02DD46460CFB5
:101EA000D0655ECFCF71D0E0DC2FCC27C16FD06A78
:101EB00057CF86958695877020E2829FC0011124B6
:101EC000C37021E030E0A90102C0440F551FCA953C
:101ED000E2F7EA01C82BD92BDA6842CF0E945910E9
:101EE000C82FD0E0DC2FCC27CC27DF71D06238CFD1
:101EF0008F710E94591065E0D695C7956A95E1F7F4
:101F0000CF70D0E0DC2FCC27282F30E084FF05C035
:101F100054E0220F331F5A95E1F7C22BD32BD0691F
:101F20001FCF8D2F8F710E945910182FCE01992726
:101F30000E94B50F212F30E0322F222722273F7138
:101F4000282B392BE901D2CF462F672F753028F483
:101F5000463018F40E947502089580E090E00895DC
:101F60000E94A40F0E948B0E0895803E9105D1F12E
:101F7000C8F48133910509F47FC048F48932910592
:101F800009F46FC08A32910509F47DC00895893340
:101F90009105E1F082389105C9F08533910509F486
:101FA0005BC00895843E9105D1F148F4823E9105CD
:101FB00031F1833E910541F181EE90E00895863E36
:101FC0009105C1F1873E9105E1F108952091D90273
:101FD0002370211165C02091DA0223FF14C089E229
:101FE00090E008952091D90220FD43C03091DA029B
:101FF00030FF09C024FF4EC080E090E0089520919A
:10200000D90222FDF7CF08952091D90222FD45C0C3
:102010003091DA0230FD44C024FFF5CFEDCF20919E
:10202000DA0221FFF0CF8091D90284FDE5CF87EE5F
:1020300090E008952091D90223FFE5CF24FDDCCF65
:10204000F6CF2091D90223FD2EC03091DA0231FF64
:10205000E3CF84EE90E008952091D90225FFD3CFFD
:10206000BECF2091D90225FD21C02091DA0223FFA5
:10207000CACF89E390E008952091D90226FFC3CF0B
:102080008AE290E008952091D90226FFBCCF81E337
:1020900090E0089583EE90E0089582EE90E0089538
:1020A00080EE90E0089586EE90E0089585E390E05C
:1020B000AACF9091D90292FF10C041E0282F24713D
:1020C000243009F040E031E0282F2871283009F051
:1020D00030E0431711F02CE0822793FF10C041E05D
:1020E000282F2471243109F040E031E0282F287195
:1020F000283109F030E0431711F02CE082273091AD
:10210000DA0230FF10C051E0282F2171213009F090
:1021100050E041E0282F2871283009F040E05417A2
:1021200011F029E0822731FF10C041E0282F2171F2
:10213000213109F040E031E0282F2871283109F0E1
:1021400030E0431711F029E0822794FD877E08953F
:1021500080E0089508950E94AA10089508950E94AD
:10216000AE100895E82FF0E0E052FD4F8081089511
:10217000089580EA8A95F1F7089500C008950E94B5
:10218000B9100895F894E82FE295EF70F0E041A1BE
:102190008F7021E030E0B90102C0660F771F8A9589
:1021A000E2F7CB01962F9095942391A392A1892BCE
:1021B00082A3789408950F931F93CF93DF93C8E978
:1021C000D1E089918F3F11F00E94C21081E0CD399A
:1021D000D807B9F7C2E9D1E008E911E089918F3F4A
:1021E00011F00E94C2100C171D07C1F7DF91CF91AB
:1021F0001F910F910895A0E0B0E0E1E0F1E10C94AF
:102200009427EC01D62E062F10E0C80188569E4F69
:102210007C01FC0180818F3F09F445C0F894E82FD0
:10222000E295EF70F0E091A18F7021E030E001C005
:10223000220F8A95EAF7892F822B81A382A120950C
:10224000282322A378940E94BD10E2E9F1E091E0F6
:10225000C12C81918F3F81F0A82FA295AF70A05E15
:10226000B0E02C9130E08F7002C0359527958A95AB
:10227000E2F72170892F211180E0C82A990F81E0AF
:10228000E839F80731F7F70180818F3F11F00E949C
:10229000C21061E0C11001C060E08D2D0E94BF102E
:1022A000C00FD11FC882CDB7DEB7E8E00C94B027CD
:1022B0000E94DB1085E0E0EEF2E0DF01982F1D9236
:1022C0009A95E9F7EBEDF2E0DF011D928A95E9F7C7
:1022D00085E00E94AC110E94AB100895A5E0B0E02B
:1022E000E4E7F1E10C9497271A821982FE013396F4
:1022F00083E0DF011D928A95E9F7F12C8E010F5FD3
:102300001F4F6F2DC8010E94FB10F394B5E0FB1224
:10231000F8CF45E050E0B8018BED92E00E946028D4
:1023200021E0892B81F420E045E060EE72E08BED46
:1023300092E00E94AD11182F0E94AF10812F2596B8
:10234000E5E00C94B32785E0F801ABEDB2E0019035
:102350000D928A95E1F7E8CF0895A0E0B0E0E3EBB5
:10236000F1E10C949427D82EE92EF62ED72F042FC6
:10237000C22F222379F081E080938E020E94F21F07
:1023800090938D0280938C0280E0CDB7DEB7E8E0B9
:102390000C94B027C0908E02CC20B1F380918C02B7
:1023A00090918D020E941B20059770F310E0A80108
:1023B0006D2D7E2D8F2D9D2F0E946028892B41F041
:1023C000A8016D2D7E2D8F2D9D2F0E946D28CC2D67
:1023D00010928E028C2FD9CF0E94C7210E940C0E22
:1023E0000E94D42108950E94D9210E941D0E0E94AE
:1023F000F32108950E948B1F0E94AD210E94D60DEB
:102400000E94EC110E94F3110E94E90DFBCF909302
:10241000CB018093CA010895A0E0B0E0E2E1F2E1CF
:102420000C949227E82F71110DC0442321F0F0E0A5
:10243000E25CFD4F8491682F782FCDB7DEB7EAE0DC
:102440000C94AE27262F30E0C72FD0E0F0E04423D5
:1024500021F0E25CFD4FE491F0E086E0829F7001A4
:10246000839FF00C11240FEF10E0C701B8010E9408
:102470000927AB01220F331F65E5649FC001659FEB
:10248000900D1124281B390BC22ECC0CC20EC80192
:102490008C1B9D0B8E9F90018F9F300D9E9F300D4A
:1024A0001124832FCC9EB001CD9E700D1124672F77
:1024B00077275801A61AB70AAE9ED001AF9EB00D7D
:1024C000BE9EB00D11247B2F5801AC18B1086501D8
:1024D000CC9E5001CD9EB00CDC9EB00C1124AB2CD8
:1024E000BB240A191B090E9FE0010F9FD00D1E9FF0
:1024F000D00D11246E2F43305105C9F09CEFE91621
:1025000093E0F90650F44130510509F496CF42307A
:10251000510589F07E2F6D2F90CF4430510571F019
:1025200046305105B9F3632F8B2F7E2F86CF6B2F4B
:10253000732F8E2F82CF732F8D2F7FCF7D2F632F01
:10254000F8CF41E00E940C12089508950E94A11254
:102550000895CF93DF93982F762F842FE901692F69
:102560000E94A612798368838A83DF91CF910895B0
:102570008091E502843028F4837084608093E502C2
:1025800008958C3AE8F38370886AF8CF4F925F928F
:102590006F927F928F929F92AF92BF92CF92DF9273
:1025A000EF92FF920F9388E090E00E947E282B012B
:1025B0003C0184E290E00E947628282F30E040E041
:1025C00050E060E070E080E090E000E20E94C1270F
:1025D00053014201C12CD12C7601242939294A29E1
:1025E0005B296C297D298E299F290F91FF90EF90FF
:1025F000DF90CF90BF90AF909F908F907F906F9023
:102600005F904F900895A0E0B0E0E9E0F3E10C9412
:1026100094278901D42FC52F6B017C010E94B81229
:10262000A8016D2F7C2F88E090E00E94AC289801D3
:102630004D2F5C2FB601C70100E20E94DC27622FFC
:1026400084E290E00E949A28CDB7DEB7E8E00C94CF
:10265000B027E5EEF2E089E1808311828FEF82837B
:1026600083831482758129E130E04FEF5FEF60E0F2
:10267000868197810E94031308958091E50280FF6F
:1026800003C086958695089580E008959091E902AB
:10269000933018F49F5F9093E902882391F0209182
:1026A000E5023091E6024091E7025091E802609124
:1026B000E9027091EA028091EB029091EC020E9493
:1026C0000313089581E00E94461308959091E90252
:1026D000992319F091509093E902882391F0209169
:1026E000E5023091E6024091E7025091E8026091E4
:1026F000E9027091EA028091EB029091EC020E9453
:102700000313089581E00E946613089560910C01FF
:102710008091E50280FF11C070E020910B0130E054
:10272000C901880F991F820F931FE091C801F09192
:10273000C90183519D4F0995089580910D01909194
:102740000E01282F30E0F901EE0FFF1FE20FF31FFB
:10275000E351FD4F891700F71182108212828F5FBB
:102760003396F8CF9091E50290FF11C090910D0142
:1027700050910E01292F30E0F901EE0FFF1FE20FFB
:10278000F31FE351FD4F951718F00E94861308952B
:102790008183608342839F5F3396F5CFA3E0B0E0EF
:1027A000E4EDF3E10C949A279091E50290FF0AC0C2
:1027B0009E012F5F3F4F0E94A9124B8169818A8140
:1027C0000E94B2132396E2E00C94B627CF93DF93D6
:1027D000EC01EC81F0E0E75CFE4F4491E5EEF2E0C5
:1027E000628181810E94CE138C818F5F8C83DF9107
:1027F000CF910895CF93DF93EC01E5EEF2E04381B2
:1028000062818C810E94CE138C818F5F8C83DF91DB
:10281000CF910895A3E0B0E0E0E1F4E10C949827B3
:102820008C0180918F0281110AC09E012F5F3F4F62
:102830004FEF6FEF0E94A9128A8180938F02F801F7
:102840006481613049F06230D1F080918F0240E0C4
:10285000662331F040E015C060918F0240E080E0D7
:102860000E94B213F801848190E0019663E070E069
:102870000E941D2784832396E4E00C94B4274091A2
:102880008F0280E060E0ECCFA3E0B0E0EAE4F4E1A6
:102890000C949227F82ED62EE42EB22E9091E502BB
:1028A00090FF2FC0E92FE695E695AE2FB0E0A35636
:1028B000BE4F8C918093C1029C7F943031F59E0174
:1028C0002F5F3F4F8F2D0E94A9124B8169818A8112
:1028D0000E94B213F092E602D092E702E092E80280
:1028E000BB2079F02091E5026091E9027091EA0243
:1028F0003F2D4D2D5E2D8091EB029091EC020E94B8
:1029000003132396EAE00C94AE27823019F4E0908A
:10291000E802E0CF863019F4F090E602DBCF893090
:10292000D9F38931B9F6E9518E2F8170A82EE69539
:10293000F0E0E75CFD4FE491C12C0E2F10E06091B8
:102940000F01C61618F00E948613C4CF2C2D30E05C
:10295000C09EC001C19E900D112470E00E94092705
:102960008F2DA11013C0860F90910D01A901490F61
:10297000511D9A01220F331F240F351F23513D4F44
:102980004E2D6D2D0E94A912C394D9CF861BECCF7A
:10299000282FE5EEF2E0818143816281885F0E9409
:1029A0004414089581E00E94C8140895282FE5EE8C
:1029B000F2E081814381628188500E94441408952D
:1029C00081E00E94D6140895282FE5EEF2E062819E
:1029D00031E1630F08F46FEF438181810E94441459
:1029E000089581E00E94E4140895282FE5EEF2E0B6
:1029F000628131E1631B08F460E0438181810E94C0
:102A00004414089581E00E94F5140895282FE5EEFE
:102A1000F2E0438131E1430F08F44FEF628181819D
:102A20000E944414089581E00E9406150895282FFD
:102A3000E5EEF2E0438131E1431B08F440E06281BE
:102A400081810E944414089581E00E941715089521
:102A500020E00E9444140895EF92FF921F93CF93B9
:102A6000DF93EC0110E0EE24EA94F12C60910F0169
:102A7000161770F00E9486139A818C8190FF25C0F2
:102A80008F5F8C83DF91CF911F91FF90EF9008951E
:102A900080910D01810F9927991F9C01220F331FEF
:102AA000280F391F23513D4F70E0C7010E941D2799
:102AB000962F8C814091E8026091E702199F800D6A
:102AC00011240E94A9121F5FD1CF8150DACFA0E05C
:102AD000B0E0EDE6F5E10C949327FC01828101E082
:102AE00080FD0FEF10E080910F01181798F00E9401
:102AF000861380919102013009F04EC0811102C00D
:102B000080910F01815080939102CDB7DEB7E9E04B
:102B10000C94AF2780910D01C12ED12C8C0D9D2DD1
:102B2000911DEC01CC0FDD1FC80FD91FC351DD4F24
:102B3000198218821A8234E0E32EF12CB12C809194
:102B400091028B0D893014F18770082E000C990BBF
:102B5000C816D90691F48091E8028E9DA0018F9D40
:102B6000500D112455954795559547959E016091B7
:102B7000E7028091E6020E94A912B00EF1E0EF1A7E
:102B8000F108E114F104D9F61F5FADCF87FFDDCF67
:102B900090910F01890FD9CF90E0019660910F01BC
:102BA00070E00E941D27AFCF0F931F93CF938091AA
:102BB0000D0190910E01282F30E0F901EE0FFF1F5B
:102BC000E20FF31FE351FD4F891730F1C0E0609130
:102BD0000F01C61738F10E948613209109018091D8
:102BE0009002820F8093900290910A01920F90932D
:102BF0000A01191654F4082E000C990B40910F018C
:102C00004150550B841795071CF02195209309011D
:102C1000CF911F910F9108951182108212828F5FC0
:102C20003396D2CF0C2F10E070E0C8010E941D2710
:102C300090910D01980F892F90E020919002022E23
:102C4000000C330BFC01EE0FFF1FE80FF91F0217FA
:102C50001307ACF020910A01022E000C330B201751
:102C600031076CF09F0123513D4F4091E802609184
:102C7000E7028091E6020E94A912CF5FA8CFE3513C
:102C8000FD4F118210821282F8CFAEE0B0E0EBE48B
:102C9000F6E10C9496278D879E87AD85BE851496A8
:102CA0001C91212F30E0D9010E9461279B01AC01CA
:102CB0000E94772769837A838B839C83E0E2F0E02C
:102CC000E11BF109A5E5B0E09B01AC010E9477276B
:102CD00069877A878B879C879F01DF010E9459272C
:102CE0009B01AC010E9482276D837E838F8398872E
:102CF0009B01AC0189819A81AB81BC81280F391F6E
:102D00004A1F5B1F69857A858B859C850E943127C8
:102D1000022F30E00A3248F5A901440F551F420F37
:102D2000531F55954795142F1095F12C85E5E82EE6
:102D3000E01A80910F01F81630F10E948613AD85DC
:102D4000BE8514969C9181E0992319F0903219F474
:102D50008FEF8093080180910801890FED85FE8532
:102D600084832E96E6E00C94B22785E590E0821BE2
:102D7000930BAC01440F551F480F591F57FFD1CF7C
:102D80004F5F5F4FCECF8E2DF1FC802F40910D0114
:102D90004F0D5527551F9A01220F331F240F351F42
:102DA00023513D4F412F6091E7020E94A912F394F5
:102DB000C0CF0F931F93CF93DF93EC0100E010E09F
:102DC00040910F01842F90E0081719076CF00E94C2
:102DD00086138C8190E00196817099278C83DF9116
:102DE000CF911F910F91089580910D01800F912F28
:102DF000911D9C01220F331F280F391F23513D4F76
:102E00009C816091E7028091E602469550E00417AC
:102E100015074CF4992349F04091E8020E94A91249
:102E20000F5F1F4FCDCF9923B9F340E0F7CFA0E05C
:102E3000B0E0EDE1F7E10C948C27FC016280448066
:102E400081E08483E9E3F1E07490E8EBF1E0E49160
:102E5000C091E802C695C158D0E0CC0FDD1FCD2F40
:102E6000DD27812C75E0972EAA24AA94B12C552435
:102E70005A94E719EE2EF12C80910F01881638F044
:102E80000E948613CDB7DEB7E0E10C94A827C82CCA
:102E9000D12C82E0861568F09C9CF0019D9CF00D81
:102EA0001124EE56FD4F8091E60280838091E70267
:102EB0008183411023C09C9CF0019D9CF00D112446
:102EC000EE56FD4F1382128280910D018C0D9D2DC7
:102ED000911D9C01220F331F280F391F23513D4F95
:102EE0009C9CF0019D9CF00D1124EE56FD4F4281FB
:102EF000618180810E94A9128394BECF9C9C800135
:102F00009D9C100D11240E561D4FF80183818823BE
:102F1000F1F081508383589EC0011124648170E0D8
:102F20000E940927FB01FF27E75CFE4F8491E82FF1
:102F3000E7195E9EC0011124B7010E940927809104
:102F4000E802689FB0011124F8017283BDCF0E948E
:102F50004328B5010E941D278C179D070CF0B4CFA4
:102F6000F2E0F61598F40E944328B5010E941D274F
:102F7000F80180830E9443282091E7022695622F62
:102F800070E00E941D27280FF80121839C9CF0010E
:102F90009D9CF00D1124EE56FD4F12828091E802A7
:102FA000893C58F088EC9C9CF0019D9CF00D11240C
:102FB000EE56FD4F8483838387CF8431A0F784E16D
:102FC000F2CFE5EEF2E020812E7F20833181428135
:102FD000538164817581868197810E9403131092C9
:102FE000C2020E94861308956091E5026695669577
:102FF00070E04BE050E080E191E00E945328892B83
:1030000019F481E08093C2020E94F21F9093BB02E8
:103010008093BA0208959091E50290FF3AC0882308
:10302000C9F18B32C8F58F73282F220F220F8091A0
:10303000E5028370282B2093E502662381F030910E
:10304000E6024091E7025091E8026091E902709136
:10305000EA028091EB029091EC020E9403136091CE
:10306000E5026695669570E04BE050E080E191E006
:103070000E945328892B91F01092C20281E0809324
:10308000BD024091E8026091E7028091E6020E9451
:103090002815089581E0C8CF8AE2C6CF0E94F417B0
:1030A000EDCF682F8091E502869586958F5F8B32F4
:1030B00008F081E00E940B18089581E00E945118E9
:1030C0000895682F9091E502969596958FEF890F58
:1030D000913009F48AE20E940B18089581E00E9461
:1030E0006118089561E00E940B180895E5EEF2E082
:1030F000808181608083869586950E9472180895EC
:103100008091E50280FF03C00E94E11708950E94AC
:103110007618089560E00E940B1808958091C0020F
:10312000811137C00E94C6122093E5023093E60257
:103130004093E7025093E8026093E9027093EA0239
:103140008093EB029093EC022430A0F40E942913A8
:103150000E94C6122093E5023093E6024093E702F4
:103160005093E8026093E9027093EA028093EB02C5
:103170009093EC020E94B8121092C2028091E50274
:1031800080FF04C0869586950E948A1881E080930E
:10319000C00208950F931F93CF93DF938091C202D3
:1031A0008823C1F18091C102E091E502E695E695A0
:1031B000E81BE093BC02823091F5F0E0EB5CFE4F3F
:1031C000E491CE2FD0E006EE13E18091BD0288237A
:1031D00061F01092BD020E94F21F9093BB02809397
:1031E000BA021092BF021092BE020E94F21F2091FA
:1031F000BA023091BB02821B930B8F3F9F4750F462
:103200002C0F3D1F3093BB022093BA028AEB92E051
:10321000F8010995DF91CF911F910F910895C8E2B0
:10322000D0E005E416E1883181F2C0F48F3009F472
:103230003AC048F4863021F1893059F1C0EDD7E029
:1032400005EA12E1C2CF8531C9F7F0E0E75DFE4F34
:10325000E491CE2FD0E004ED15E1B7CFC4EFD1E07B
:1032600009ED16E1843209F4B0CF853231F18332B1
:1032700029F7E7E2F1E0C591D4910AE014E1A5CF86
:10328000F0E0EE5CFE4FE491CE2FD0E00AEF13E1C8
:103290009CCFE695F0E0E15DFE4FE491CE2FD0E0CB
:1032A0000CE215E192CFE695F0E0E45DFE4FE4918B
:1032B000CE2FD0E007E615E188CF8E2F63E00E9485
:1032C000FD26E92FF0E0EC5DFE4FE491CE2FD0E03B
:1032D00007E117E17ACF08950E94CA180895FA010C
:1032E000882311F009950895FB01FCCFCF93DF935C
:1032F000C82FD62F0E943D138C1748F00E943D1313
:103300008D1728F40E945D18DF91CF9108958C2FBE
:103310000E947218F9CF1F93CF93DF93EC01FB014A
:103320001581111168C00E94BE0B8272FE01E0522D
:10333000F847E531F10508F05EC0E151F74D0C9416
:1033400053270E948018812FDF91CF911F910895FC
:103350004EE658E16DE578E10E946F19F4CF4DE536
:1033600058E16EE678E1F8CF40EE54E162ED74E1A9
:10337000F3CF42ED54E160EE74E1EECF42E055E16F
:1033800061EF74E1E9CF41EF54E162E075E1E4CF30
:1033900044E255E163E175E1DFCF43E155E164E2E9
:1033A00075E1DACF42E853E162E673E1D5CF42E658
:1033B00053E162E873E1D0CF81E00E947218C3CF7D
:1033C00065E082E00E947619BECF68E086E0FACF21
:1033D0006EE089E0F7CF64E18FE0F4CF67E185E14B
:1033E000F1CF88E1EACF62E289E1ECCF83E2E5CF79
:1033F0006AE285E2E7CF11E0A6CF86E090E00E9486
:1034000076280895682F86E090E00E949A28089513
:103410008DE1809305030E94021A08950E94FD1910
:103420008093050382FF0E94081A80910503803271
:1034300020F0877088618093050390910503892FA0
:103440008170882321F0892F8695869586950E9424
:103450000E1B089590910503892F86958695869574
:10346000983140F48F5F880F880F880F9770892BF1
:1034700080930503809105038160809305030E947A
:10348000021A809105038695869586950E940E1BEB
:10349000089580910503883078F088508093050363
:1034A00091E0883008F490E08091050390FB80F96A
:1034B000809305030E94021A8091050386958695E4
:1034C00086950E940E1B08958091050380FD13C010
:1034D000816080930503813019F489E080930503AE
:1034E000809105030E94021A8091050386958695B6
:1034F00086950E940E1B08958091050380FF08C0E9
:103500008E7F809305030E94021A80E00E940E1BAA
:1035100008958091050380FF03C00E947C1A0895DE
:103520000E94641A08958091050386958695869574
:103530008F5F8F71843008F080E0880F880F880FCC
:10354000909105039770892B8093050391E0883053
:1035500008F490E08091050390FB80F980930503C7
:103560000E94021A809105038695869586950E9491
:103570000E1B0895843008F083E020910503277026
:10358000982F990F990F990F922B9093050321E093
:10359000983008F420E09091050320FB90F9909377
:1035A00005030E940E1B08950E94BA1A809105031C
:1035B0000E94021A08959C01FB018581882361F114
:1035C0002330F8E73F07E1F060F42130E8E73E07F9
:1035D000A9F02230F8E73F07C9F02115384749F034
:1035E00008952430E8E73E0771F02530384789F028
:1035F000089583E00E94D41A80E0089580E0FACF15
:103600000E94491AF9CF0E942A1AF6CF0E94891AFD
:10361000F3CF0E94931AF0CF81E00895A8E0B0E0C4
:10362000E4E1FBE10C9494278430F0F481111DC097
:10363000809180008F7780938000809186009091A8
:1036400087008091860090918700E0E0F0E0CF0154
:1036500069E070E00E9409277093890060938800F8
:103660002896E8E00C94B02783E090918000906861
:1036700090938000A0918600B0918700282F30E0C1
:103680000E94612769837A838B839C8323E030E0E7
:1036900040E050E00E94312769017A01F9018091F0
:1036A0008600909187006CE070E00E9409276C15FD
:1036B0007D0568F6809186009091870000918600D4
:1036C00010918700209186003091870066E070E0BD
:1036D0000E940927C60ED71EE11CF11CD701C601A6
:1036E00045E0880F991FAA1FBB1F4A95D1F7898310
:1036F0009A83AB83BC83C80166E070E00E9409270F
:1037000040E050E0260F371F411D511D69817A812D
:103710008B819C810E94312729833A834B835C8370
:10372000E0918600F0918700CA01B9010E94ED2660
:10373000DF019B01AC010E9477276D837E838F831D
:1037400098879B01AC0169817A818B819C810E9461
:10375000ED2669837A838B839C83DC01CB015FE058
:10376000B695A795979587955A95D1F7409186007C
:103770005091870060E070E0481759076A077B079F
:1037800020F48091860090918700BC0165CF089558
:10379000259A2D9882E88093800089E180938100AA
:1037A0008FEF9FEF90938700809386000E940E1A00
:1037B00008959C01AB01539A6BB1677F7BB1786030
:1037C000EFB7F894CA01880F991F840F951F820FD5
:1037D000931F8217930741F4EFBF8FE594E00197A1
:1037E000F1F700C000000895D9014D919D0158E006
:1037F0007BB9000000C047FF6BB9440F000000C058
:1038000000C000C06BB900C05A9591F7E2CF0E948A
:10381000E70C089580E00E94B210817008950E9424
:103820006E112FEF86E791E0215080409040E1F744
:1038300000C000000E946E110E940A1C882321F023
:103840000E94071C0E944E2008950E940F1C08959C
:10385000CF93DF93EB0186319C4719F50E94BE0B95
:103860009D819923A1F08A7A91E0811101C090E0B5
:103870009093C302882349F085E30E94091F0E94A8
:10388000780C80E0DF91CF91089589E2F6CF8091A6
:10389000C302882321F085E30E94201FF0CF89E234
:1038A000FBCF81E0EFCFCF93DF93EC01FB0185816C
:1038B000882309F4D2C09E0130572332310508F025
:1038C000B2C00E94030D9093DA028093D902FE01E8
:1038D000E150F047E232F10520F4EC5FF64D0C9434
:1038E00053278091D90281608093D90293C080913F
:1038F000DA0288608093DA028DC08091D9028260FA
:10390000F3CF8091D9028460EFCF8091D902886093
:10391000EBCF8091DA028160EDCF8091DA02826094
:10392000E9CF8091D9028061DFCF8091D902806296
:10393000DBCF8091D9028064D7CF0E944F0780915E
:10394000D9028068D1CF8091D9028C60CDCF80918F
:10395000DA028360CFCF8091D9028E7FC5CF80916C
:10396000DA02877FC7CF8091D9028D7FBDCF80914A
:10397000D9028B7FB9CF8091D902877FB5CF809153
:10398000DA028E7FB7CF8091DA028D7FB3CF80913C
:10399000D9028F7EA9CF8091D9028F7DA5CF80914A
:1039A000D9028F7BA1CF0E944F078091D9028F77D8
:1039B0009BCF8091D902837F97CF8091DA028C7F51
:1039C00099CF8091D90282FB992790F921E0922723
:1039D00090FB82F990FB83F987CF8091DA02982FD0
:1039E000909591708E7F892B90FB81F983CF909178
:1039F000D902892F8F7B96FF806476CF0E944F0774
:103A00009091D902892F97FB87F980586DCF81E07B
:103A10000E94910D8091D9029091DA020E94080DC6
:103A20000E944F0780E0DF91CF91089580E0F0CFB2
:103A30009091D902892F8F7E94FF806155CF90910C
:103A4000D902892F8E7F90FF81604ECF9091DA024C
:103A5000892F877F93FF88604DCF81E0E4CF0F935C
:103A60001F93CF93DF93C42FD22FFC01858188232E
:103A7000C9F04093C6020E94F21F9093C502809342
:103A8000C40280E28C0F883040F4C77081E001C02E
:103A9000880FCA95EAF70E94E604DF91CF911F9143
:103AA0000F9108951091C60214133CC08091C40276
:103AB0009091C5020E941B20883C910598F5C0E2B8
:103AC000CD0F1D1741F180E2810F883040F417704F
:103AD00081E001C0880F1A95EAF70E94ED04C83012
:103AE00020F0802F0E94DD04D8CF91E08D2F8770C9
:103AF00001C0990F8A95EAF7892F0E94E604802F6A
:103B00000E94DD04D77081E001C0880FDA95EAF7E2
:103B10000E94ED04C2CF802F0E94DD04C83008F05F
:103B2000BCCFF0CF80E28C0F883008F0B6CFC770E2
:103B300081E001C0880FCA95EAF7EACF0F93FC0134
:103B4000CB01E851FC47E730F10590F5EA5DF64D11
:103B50000C94532706E221EE41EE6AE17CE70E94D5
:103B60002F1D80E00F91089507E225EE45EE6BE1F1
:103B70007CE7F5CF06E221EE40EE68E17CE7EFCF8F
:103B800007E225EE44EE69E17CE7E9CF06E221EEAB
:103B900042EE6CE17CE7E3CF07E225EE46EE6DE115
:103BA0007CE7DDCF08E221E045EE6EE17CE7D7CF90
:103BB000FB01858181111092C60281E0D3CF9093E1
:103BC000CC028093CB020895E091CB02F091CC021D
:103BD000309729F00190F081E02D0995089580E05B
:103BE00008950E94E41D0895E091CB02F091CC026B
:103BF000309721F00280F381E02D09950895DC01D2
:103C0000E091CB02F091CC02309739F086E08C93B2
:103C10000480F581E02DCD0109950895A3E0B0E081
:103C2000E4E1FEE10C949A279C018091C9029091F5
:103C3000CA0282179307A1F03093CA022093C902E7
:103C4000E091CB02F091CC02309751F083E0898370
:103C50003B832A830084F185E02DCE0101960995EE
:103C60002396E2E00C94B627A3E0B0E0EAE3FEE19D
:103C70000C949A279C018091C7029091C8028217E8
:103C80009307A1F03093C8022093C702E091CB02C2
:103C9000F091CC02309751F084E089833B832A83F2
:103CA0000084F185E02DCE01019609952396E2E08E
:103CB0000C94B62720910601309107012E5F3F4FEB
:103CC000809125018823A9F08091D90287FF11C036
:103CD00020910401309105012E5F3F4F9DE180E06E
:103CE000F90140812F5F3F4F41118F5F9150C0F725
:103CF000089595E0F4CF882321F19091250199232F
:103D000011F19091D90297FF1EC0982F9695969524
:103D10009695803FB0F4E0910401F0910501E90F20
:103D2000F11D228130E0877041E050E0BA0102C00D
:103D3000660F771F8A95E2F72623372381E0232B2E
:103D400091F480E008952091060130910701F90176
:103D50003296285F3F4F9191981721F0E217F307B1
:103D6000D1F7EFCF81E008959C01FC0132968FEFEF
:103D700090E04191461751F08F3F19F4411101C075
:103D8000892F9F5F9630A9F78F3F09F40895280F78
:103D9000311D87FD3A95F901628308959C01FC016C
:103DA0003296285F3F4F8191861303C0DF01119740
:103DB0001C92E217F307B9F70895FC01862F869548
:103DC00086958695603F60F4E80FF11D677021E0ED
:103DD00030E001C0220F6A95EAF78281822B82834C
:103DE0000895FC01862F869586958695603F80F420
:103DF000E80FF11D677081E090E09C0102C0220F86
:103E0000331F6A95E2F7B901609582816823628366
:103E10000895682F80912501882359F08091D90257
:103E200087FF07C080910401909105010E94DD1E6B
:103E3000089580910601909107010E94B41E089593
:103E4000682F80912501882359F08091D90287FF3E
:103E500007C080910401909105010E94F11E089510
:103E600080910601909107010E94CE1E08958091D5
:103E70002501882379F08091D90287FF0BC0E0915A
:103E80000401F091050132968EE1DF011D928A95C1
:103E9000E9F70895E0910601F0910701329686E076
:103EA000F4CF08950E94511F08958F5F8093CD0233
:103EB0000E94521F089583E08093CD020E94521FFA
:103EC00008950E94551F089581E08093CD020E94BD
:103ED000521F08950E94641F0895089508950E9436
:103EE0006E1F0895089508950E946D1F0895CF9341
:103EF0000E94721F0E946E110E94731FC0E08C2FDF
:103F00000E94B210811105C0CF5FC530C1F7CF91BB
:103F1000089581E0FCCF85B7806885BF85B780684C
:103F200085BF08951F921FB61F9211248F939F93F0
:103F3000AF93BF938091CE02811113C0809106038D
:103F400090910703A0910803B09109034196A11D28
:103F5000B11D8093060390930703A0930803B093C9
:103F60000903BF91AF919F918F911F901FBE1F902A
:103F7000189580910E03843031F10E9469031092EC
:103F8000CE0288E190E020E40FB6F894A8958093E3
:103F900060000FBE2093600083B7817F846083BF81
:103FA00083B7816083BF7894889583B78E7F83BF02
:103FB0000FB6F894A89580916000886180936000A6
:103FC000109260000FBE08950E944F070E94710377
:103FD000089582E084BD93E095BD9AEF97BD8093EC
:103FE0006E0008952FB7F89480910603909107030F
:103FF000A0910803B09109032FBF0895A4E0B0E099
:10400000E4E0F0E20C949A278FB7F894209106032D
:1040100030910703409108035091090329833A83A3
:104020004B835C838FBF69817A818B819C812496CD
:10403000E2E00C94B6279C014FB7F89480910603F8
:1040400090910703A0910803B09109034FBF821B11
:10405000930B089578941F921FB61F9211248F938B
:104060009F93AF93BF938091060390910703A09114
:104070000803B09109030196A11DB11D80930603A9
:1040800090930703A0930803B0930903BF91AF91E6
:104090009F918F911F901FBE1F90189587E797E7FC
:1040A000909301088093000888E19AE00FB6F89495
:1040B000A895809360000FBE90936000FFCF88E1C9
:1040C0009AE00FB6F894A895809360000FBE909385
:1040D0006000FFCF8091D70208950895282FCB016B
:1040E000BA0130910E033430E1F42F702093E900CF
:1040F0002FEF3091E80035FD07C035ED3A95F1F727
:10410000000021502111F5CF2091E80025FF09C0C2
:1041100040E050E00E946B228091E8008E7780930F
:10412000E8000895BC0143E050E082E00E946E2068
:104130000895BC0140E250E082E00E946E200895A4
:10414000CF93DF93D82FC92F48E050E0682F792F05
:1041500081E00E946E2088E0ED2FFC2FAFECB2E0F2
:1041600001900D928A95E1F7DF91CF9108958091AA
:104170000D03811109C00E94F3230E9450248091F5
:10418000E20084608093E200089510920D03089588
:104190000E94641F089560910A0381E0611101C0CB
:1041A00080E00E945B1F089590910E0381E094309F
:1041B00009F080E060910A030E94611F089542E0C7
:1041C00061EC81E00E946F2342E261EC82E00E9498
:1041D0006F2390910E0381E0943009F080E06091AC
:1041E0000A030E94551F089580911003893089F1B8
:1041F00048F4823009F4A0C0833009F45AC08130F9
:1042000041F008958A3009F487C08B3009F46CC0FE
:10421000089580910F03813A09F04AC08091E80027
:10422000877F8093E8008091130390911403892B7A
:1042300061F060E080E090E070E00E94BA2280913E
:10424000E8008B778093E800089568E08FEC92E0B7
:10425000F3CF80910F03813259F580911303909130
:104260001403029728F58091E800877F8093E80087
:104270008091E80082FF18C09091F3008091F200D5
:10428000029731F48091F100813011F0863021F4F1
:104290008091F1008093D7028091E8008B77809322
:1042A000E8000E94A32304C080910E038111E0CF97
:1042B000089580910F03813AD9F78091130390916B
:1042C0001403892BA9F78091E800877F8093E80089
:1042D0008091E80080FFFCCF809125018093F10060
:1042E0008091E8008E77DBCF80910F03813201F758
:1042F0008091130390911403892BD1F68091E800EB
:10430000877F8093E8000E94A3238091110380930C
:1043100025010E944F07089580910F03813241F6D5
:104320008091E800877F8093E8000E94A32380911A
:1043300012038093D802089580910F03813A09F007
:10434000B7CF8091E800877F8093E8008091E800F4
:1043500080FFFCCF8091D802C1CF84B7877F84BF14
:104360000FB6F894A89580916000886180936000F2
:10437000109260000FBE80E890E00FB6F894809332
:104380006100909361000FBE0E946A1F08950E9411
:10439000F3230E945024E2EEF0E080818460808369
:1043A00078940E94D32608958BE191E00E94DF1D4E
:1043B000089580910E03853031F480910E0385308D
:1043C00019F00E94E41F08950E94B91F80910C0308
:1043D000882399F30E94771F882379F30E9455223E
:1043E0000E944F07EACF08959A014091150350911A
:1043F00016030E94FC210895AC01CB01D901252FA1
:10440000332723303105E1F058F421303105C9F16B
:1044100022303105D9F180E090E020E030E01EC08C
:104420002132310521F122323105A9F7892BC1F161
:104430006130710581F78DE690E023EC33E00EC02A
:10444000CA019927413069F08230910569F0E2E7AD
:10445000F3E0892B01F7849190E09F012D933C9329
:104460000895E0E5F3E0F7CFEEE3F3E0F4CF892B36
:1044700091F06130710579F689E090E021EA33E04E
:10448000EDCF82E190E021EB33E0E8CF8BE390E0E9
:1044900026E733E0E3CF89E090E028E833E0DECFA1
:1044A00084E490E020E334E0D9CF80E189BD82E16B
:1044B00089BD09B400FEFDCF8091D8008F7D809327
:1044C000D8008091E00082608093E0008091E0005D
:1044D00081FDFCCF0895AF92BF92CF92DF92FF9201
:1044E0000F931F93CF93DF936C01EB018A010E941E
:1044F000C223F82E811123C00115110539F0F801EE
:1045000080819181C81BD90BC80ED91EA12CB12C5A
:104510002097A9F08091E80085FD22C08091E800F5
:104520008E778093E80001151105A1F0F8018081D4
:1045300091818A0D9B1D9183808385E0F82E8F2DBC
:10454000DF91CF911F910F91FF90DF90CF90BF909F
:10455000AF9008950E94C2238823E1F2F82EEFCF96
:10456000F60181916F018093F1002197FFEFAF1A5F
:10457000BF0ACECFFC019B018091150390911603D9
:104580008617970718F0672B61F0C90140E0009784
:1045900071F441110CC08091E80082FF35C080E0C9
:1045A00008958091E8008E778093E800EECF209107
:1045B0000E032223A9F12530A9F12091E80023FD63
:1045C0002DC02091E80022FDE6CF2091E80020FFD9
:1045D000DECF3091F3002091F200009719F02830DF
:1045E000310558F041E02830310509F040E02091D4
:1045F000E8002E772093E800CACF41914093F10064
:1046000001972F5F3F4FE9CF80910E03882341F040
:10461000853041F08091E80083FFBDCF81E00895AF
:1046200082E0089583E00895FC019B0180911503C9
:10463000909116038617970718F0672B61F0C90150
:1046400040E0009771F441110CC08091E80082FFB6
:1046500036C080E008958091E8008E778093E8006E
:10466000EECF20910E032223B1F12530B1F120913C
:10467000E80023FD2EC02091E80022FDE6CF209126
:10468000E80020FFDECF3091F3002091F200009788
:1046900019F02830310558F041E02830310509F093
:1046A00040E02091E8002E772093E800CACF4491A3
:1046B0004093F100319601972F5F3F4FE8CF8091F3
:1046C0000E03882341F0853041F08091E80083FF9C
:1046D000BCCF81E0089582E0089583E00895982F8B
:1046E000973028F08F708093E90081E008959093CF
:1046F000E900242F762F50E0981731F07091EC00EC
:104700002091ED005091F00021FD02C09F5FE8CFA5
:104710003091EB003E7F3093EB003091ED003D7F18
:104720003093ED003091EB0031603093EB007093EB
:10473000EC002093ED005093F0002091EE0027FD57
:10474000E5CF80E0089580910F0387FF13C080912B
:10475000E80082FF06C08091E8008B778093E80034
:1047600004C080910E038111F2CF089580910E0351
:104770008823D9F38091E80080FFF8CF8091E8008A
:104780008E77ECCF2091E4003091E50095E6A90109
:104790008091EC008170882331F08091E80080FFE7
:1047A00006C080E008952091E80022FD1BC08091A2
:1047B0000E03882391F0853091F08091EB0085FD08
:1047C00010C02091E4003091E5004217530701F337
:1047D00091509111DCCF84E0089582E0089583E048
:1047E000089581E008950E9462240E946A24E0EE08
:1047F000F0E0808181608083E8EDF0E080818F7758
:10480000808319BCA7EDB0E08C918E7F8C93808162
:104810008F7E808310920D0308950F931F93CF9383
:10482000DF930E9462240E946A24C8EDD0E0888150
:104830008F77888388818068888388818F7D88834B
:1048400019BC10920E0310920A0310920C031092DE
:104850000B0300EE10E0F80180818B7F808388815C
:104860008160888342E060E080E00E946F23E1EE97
:10487000F0E080818E7F8083E2EEF0E080818160D5
:104880008083808188608083F80180818E7F80832F
:10489000888180618883DF91CF911F910F91089566
:1048A000E8EDF0E080818F7E8083E7EDF0E08081AD
:1048B0008160808384E082BF81E080930D030E9449
:1048C0000D240895E8EDF0E080818E7F80831092C2
:1048D000E20008951092DA001092E10008951F920C
:1048E0000F920FB60F9211242F933F934F935F9324
:1048F0006F937F938F939F93AF93BF93EF93FF93A8
:104900008091E10082FF0BC08091E20082FF07C02E
:104910008091E1008B7F8093E1000E94D2268091FC
:10492000DA0080FF19C08091D80080FF15C0809107
:10493000DA008E7F8093DA008091D90080FF94C0E6
:1049400080E189BD82E189BD09B400FEFDCF81E02F
:1049500080930E030E94B7208091E10080FF19C070
:104960008091E20080FF15C08091E2008E7F8093ED
:10497000E2008091E20080618093E2008091D800A3
:1049800080628093D80019BC85E080930E030E945A
:10499000CB208091E10084FF29C08091E20084FF58
:1049A00025C080E189BD82E189BD09B400FEFDCF4B
:1049B0008091D8008F7D8093D8008091E1008F7E18
:1049C0008093E1008091E2008F7E8093E2008091ED
:1049D000E20081608093E20080910A03882309F459
:1049E00049C084E080930E030E94D4208091E100AE
:1049F00083FF29C08091E20083FF25C08091E10000
:104A0000877F8093E10082E080930E0310920A0377
:104A10008091E1008E7F8093E1008091E2008E7FA3
:104A20008093E2008091E20080618093E20042E0A6
:104A300060E080E00E946F238091F00088608093A6
:104A4000F0000E94C820FF91EF91BF91AF919F911C
:104A50008F917F916F915F914F913F912F910F9027
:104A60000FBE0F901F90189519BC10920E030E9454
:104A7000C52072CF8091E30087FF02C083E0B2CFF0
:104A800081E0B0CF1F920F920FB60F921124FF92C8
:104A90000F931F932F933F934F935F936F937F9346
:104AA0008F939F93AF93BF93CF93DF93EF93FF9336
:104AB00009EE10E0F8018081C091EC00C795CC2789
:104AC000C7958F70FC2EF82A1082C0EFD0E0888145
:104AD000877F888378940E948B25F80110828881D3
:104AE00088608883CF2DCF70C083FF91EF91DF91D5
:104AF000CF91BF91AF919F918F917F916F915F9176
:104B00004F913F912F911F910F91FF900F900FBEEA
:104B10000F901F901895AAE2B0E0E1E9F5E20C943D
:104B200099278FE093E0FC0101962091F10020830A
:104B300023E087319207B9F70E94F4208091E800C2
:104B400083FF38C080910F03909110039A3090F545
:104B5000E92FF0E0E35DF64D0C945327803889F09F
:104B6000823841F5809113038F70873018F5809358
:104B7000E9008091EB0085FB882780F91092E9001D
:104B800006C080910B0390910C039111826090916B
:104B9000E800977F9093E8008093F1001092F10075
:104BA0008091E8008E7723C0811116C08091110397
:104BB000813011F18091E80083FF0AC08091E80004
:104BC000877F8093E8008091EB0080628093EB0008
:104BD000AA96E3E00C94B527823061F78091110327
:104BE000882389F01092E9008091E800877F809304
:104BF000E8000E94A323DECF81E0933009F080E03B
:104C000080930C03EFCF809113038F702FEF280F49
:104C1000263080F68093E9002091EB0020FFE2CF60
:104C2000933031F48091EB0080628093EB00DACF17
:104C30009091EB0090619093EB0021E030E0A901AE
:104C400002C0440F551F8A95E2F74093EA00109284
:104C5000EA008091EB008860E8CF8111ABCF109122
:104C600011031F778091E3008078812B8093E3000C
:104C70008091E800877F8093E8000E94A3238091C1
:104C8000E80080FFFCCF8091E30080688093E30020
:104C900083E0111101C082E080930E038BCF805816
:104CA000823008F087CF80911103909112038C3DE0
:104CB00053E0950799F583E08A838AE289834FB7A9
:104CC000F894DE01139620E03EE051E2E32FF0E09D
:104CD00050935700849120FF03C082958F703F5FEF
:104CE0008F708A30C8F0895C90E08D939D932F5F20
:104CF000243161F74FBF8091E800877F8093E800FF
:104D00006AE270E0CE0101960E94BA228091E8002A
:104D10008B778093E8004ECF805DE6CF60911303E0
:104D200070911403AE014F5F5F4F0E94F421BC01EC
:104D3000892B09F43FCF8091E800877F8093E800BA
:104D400089819A810E941423E1CF803809F032CF03
:104D50008091E800877F8093E80080910A03809328
:104D6000F1001ECF811126CF90911103923008F0EF
:104D700021CF8091E800877F8093E80090930A0319
:104D80000E94A32380910A03882331F084E080935A
:104D90000E030E94DF200ECF8091E30087FDF6CF47
:104DA00081E0F5CF0895CF9380910E03882399F089
:104DB0008091E900C091EC00C795CC27C7958F7012
:104DC000C82B1092E9008091E80083FD0E948B259A
:104DD000CF70C093E900CF910895DB018F939F932B
:104DE0000E947727BF91AF91A29F800D911DA39F35
:104DF000900DB29F900D11240895991B79E004C085
:104E0000991F961708F0961B881F7A95C9F7809509
:104E10000895AA1BBB1B51E107C0AA1FBB1FA61701
:104E2000B70710F0A61BB70B881F991F5A95A9F753
:104E300080959095BC01CD01089597FB072E16F43F
:104E4000009407D077FD09D00E94092707FC05D000
:104E50003EF4909581959F4F0895709561957F4F91
:104E60000895A1E21A2EAA1BBB1BFD010DC0AA1FAB
:104E7000BB1FEE1FFF1FA217B307E407F50720F0C3
:104E8000A21BB30BE40BF50B661F771F881F991F3E
:104E90001A9469F760957095809590959B01AC0187
:104EA000BD01CF010895EE0FFF1F0590F491E02D95
:104EB00009940E946127332312F48A1B9B0B0C94E4
:104EC0007227A29FB001B39FC001A39F700D811DE7
:104ED0001124911DB29F700D811D1124911D089503
:104EE0000E946127B7FF0895821B930B08950E94CB
:104EF0006127A59F900DB49F900DA49F800D911DDB
:104F000011240895B7FF0C9477270E947727821BFE
:104F1000930B08952F923F924F925F926F927F92E0
:104F20008F929F92AF92BF92CF92DF92EF92FF92B9
:104F30000F931F93CF93DF93CDB7DEB7CA1BDB0B65
:104F40000FB6F894DEBF0FBECDBF09942A8839880A
:104F500048885F846E847D848C849B84AA84B98411
:104F6000C884DF80EE80FD800C811B81AA81B9811D
:104F7000CE0FD11D0FB6F894DEBF0FBECDBFED0131
:104F80000895002E083090F0982F872F762F652FE8
:104F9000542F432F322F22270850F4CF220F331FD4
:104FA000441F551F661F771F881F991F0A95B2F768
:104FB000002D089597FD1094002E083098F00850A9
:104FC000232F342F452F562F672F782F892F912D80
:104FD000F4CF15949795879577956795579547954D
:104FE000379527950A95AAF71124002D08958F92D9
:104FF0009F92AF92BF92CF92DF92EF92FF92CF93A8
:10500000DF93EC01688179818A819B81611571054B
:105010008105910521F464E279ED8BE597E02DE1BE
:1050200033EF41E050E00E94CE2849015A019B0134
:10503000AC01A7EAB1E40E9477276B017C01ACEEDA
:10504000B4EFA50194010E948527DC01CB018C0DF2
:105050009D1DAE1DBF1DB7FF03C00197A109B0483C
:1050600088839983AA83BB839F77DF91CF91FF9039
:10507000EF90DF90CF90BF90AF909F908F9008956A
:105080000E94F727089580E091E00E94F727089595
:10509000B0E0A0E08093000190930101A093020191
:1050A000B09303010895FC014150504030F001904D
:1050B0000616D1F73197CF010895882799270895CB
:1050C000FB01DC0104C08D910190801921F4415055
:1050D0005040C8F7881B990B0895FB01DC0102C002
:1050E00001900D9241505040D8F70895F999FECFA4
:1050F00092BD81BDF89A992780B50895A6E1B0E0E8
:1051000044E050E00C94C028A8E1B0E042E050E058
:105110000C94C028DC01A40FB51F4150504048F04A
:10512000CB01840F951F2E910E949B284150504027
:10513000D0F70895262FF999FECF92BD81BDF89A38
:10514000019700B4021639F01FBA20BD0FB6F894CB
:10515000FA9AF99A0FBE08950396272F0E949B286A
:105160000E949A28252F0E949B28242F0C949B286C
:105170000196272F0E949B280C949A28DC01CB01D2
:10518000FC01F999FECF06C0F2BDE1BDF89A319657
:1051900000B40D9241505040B8F70895052E97FB8A
:1051A0001EF400940E94E52857FD07D00E94312785
:1051B00007FC03D04EF40C94E528509540953095AB
:1051C00021953F4F4F4F5F4F089590958095709573
:1051D00061957F4F8F4F9F4F0895F894FFCFA1198E
:1051E000A819AF19B419B919BE19C319C819CD191D
:1051F000D219D719DC19E019E519E819EB19EE19DC
:10520000F119F319F619F819AB1C1F1DB31C7D1CFD
:10521000811CB71C851CBB1CC71C911C181D951C30
:10522000CB1C991CCF1CF71C9D1CD31CFE1CA31C63
:10523000D91CE11C891CBF1C8D1CC31CA71CDD1CB8
:10524000ED1C071D161D771CAF1C261DBA1DC01DA9
:10525000AA1DB41DC61DCC1DD21DAE25D425DA2530
:0E526000D425DA252D264F26DA25A526B226DE
:10526E00010000005202720201010200080008084B
:10527E0001191A1B1C1D1E1F2021226A20A0209915
:10528E00206D20922001E200E900EA00B500B60090
:10529E00B700CD008301CC008A0192019401210256
:1052AE00230224022502260227022A02B300B4009A
:1052BE006F0070009F01CB019F02A002E200E90087
:1052CE00EA00B500B600B700CD008301CC008A011C
:1052DE0092019401210223022402250226022702B2
:1052EE002A02B300B4006F0070009F01CB019F0231
:1052FE00A00290946697C63436323331F70001021D
:10530E000202020606060909090909090F0F0F0F05
:10531E000F0F151515181919191919191919191910
:0A532E002324252525252525D91B5C
:00000001FF
